{
  "_format": "hh-sol-artifact-1",
  "contractName": "ERC1155MixedFungible",
  "sourceName": "contracts/ERC1155MixedFungible.sol",
  "abi": [
    {
      "inputs": [
        {
          "internalType": "string",
          "name": "uri",
          "type": "string"
        }
      ],
      "stateMutability": "nonpayable",
      "type": "constructor"
    },
    {
      "anonymous": false,
      "inputs": [
        {
          "indexed": true,
          "internalType": "address",
          "name": "account",
          "type": "address"
        },
        {
          "indexed": true,
          "internalType": "address",
          "name": "operator",
          "type": "address"
        },
        {
          "indexed": false,
          "internalType": "bool",
          "name": "approved",
          "type": "bool"
        }
      ],
      "name": "ApprovalForAll",
      "type": "event"
    },
    {
      "anonymous": false,
      "inputs": [
        {
          "indexed": true,
          "internalType": "address",
          "name": "operator",
          "type": "address"
        },
        {
          "indexed": true,
          "internalType": "uint256",
          "name": "type_id",
          "type": "uint256"
        },
        {
          "indexed": false,
          "internalType": "bytes",
          "name": "data",
          "type": "bytes"
        }
      ],
      "name": "TokenPoolCreation",
      "type": "event"
    },
    {
      "anonymous": false,
      "inputs": [
        {
          "indexed": true,
          "internalType": "address",
          "name": "operator",
          "type": "address"
        },
        {
          "indexed": true,
          "internalType": "address",
          "name": "from",
          "type": "address"
        },
        {
          "indexed": true,
          "internalType": "address",
          "name": "to",
          "type": "address"
        },
        {
          "indexed": false,
          "internalType": "uint256[]",
          "name": "ids",
          "type": "uint256[]"
        },
        {
          "indexed": false,
          "internalType": "uint256[]",
          "name": "values",
          "type": "uint256[]"
        }
      ],
      "name": "TransferBatch",
      "type": "event"
    },
    {
      "anonymous": false,
      "inputs": [
        {
          "indexed": true,
          "internalType": "address",
          "name": "operator",
          "type": "address"
        },
        {
          "indexed": true,
          "internalType": "address",
          "name": "from",
          "type": "address"
        },
        {
          "indexed": true,
          "internalType": "address",
          "name": "to",
          "type": "address"
        },
        {
          "indexed": false,
          "internalType": "uint256",
          "name": "id",
          "type": "uint256"
        },
        {
          "indexed": false,
          "internalType": "uint256",
          "name": "value",
          "type": "uint256"
        }
      ],
      "name": "TransferSingle",
      "type": "event"
    },
    {
      "anonymous": false,
      "inputs": [
        {
          "indexed": false,
          "internalType": "string",
          "name": "value",
          "type": "string"
        },
        {
          "indexed": true,
          "internalType": "uint256",
          "name": "id",
          "type": "uint256"
        }
      ],
      "name": "URI",
      "type": "event"
    },
    {
      "inputs": [
        {
          "internalType": "uint256",
          "name": "type_id",
          "type": "uint256"
        },
        {
          "internalType": "uint256",
          "name": "id",
          "type": "uint256"
        },
        {
          "internalType": "string",
          "name": "_uri",
          "type": "string"
        }
      ],
      "name": "_setNonFungibleURI",
      "outputs": [],
      "stateMutability": "nonpayable",
      "type": "function"
    },
    {
      "inputs": [
        {
          "internalType": "address",
          "name": "account",
          "type": "address"
        },
        {
          "internalType": "uint256",
          "name": "id",
          "type": "uint256"
        }
      ],
      "name": "balanceOf",
      "outputs": [
        {
          "internalType": "uint256",
          "name": "",
          "type": "uint256"
        }
      ],
      "stateMutability": "view",
      "type": "function"
    },
    {
      "inputs": [
        {
          "internalType": "address[]",
          "name": "accounts",
          "type": "address[]"
        },
        {
          "internalType": "uint256[]",
          "name": "ids",
          "type": "uint256[]"
        }
      ],
      "name": "balanceOfBatch",
      "outputs": [
        {
          "internalType": "uint256[]",
          "name": "",
          "type": "uint256[]"
        }
      ],
      "stateMutability": "view",
      "type": "function"
    },
    {
      "inputs": [],
      "name": "baseTokenUri",
      "outputs": [
        {
          "internalType": "string",
          "name": "",
          "type": "string"
        }
      ],
      "stateMutability": "view",
      "type": "function"
    },
    {
      "inputs": [
        {
          "internalType": "address",
          "name": "from",
          "type": "address"
        },
        {
          "internalType": "uint256",
          "name": "id",
          "type": "uint256"
        },
        {
          "internalType": "uint256",
          "name": "amount",
          "type": "uint256"
        },
        {
          "internalType": "bytes",
          "name": "data",
          "type": "bytes"
        }
      ],
      "name": "burn",
      "outputs": [],
      "stateMutability": "nonpayable",
      "type": "function"
    },
    {
      "inputs": [
        {
          "internalType": "bool",
          "name": "is_fungible",
          "type": "bool"
        },
        {
          "internalType": "bytes",
          "name": "data",
          "type": "bytes"
        }
      ],
      "name": "create",
      "outputs": [
        {
          "internalType": "uint256",
          "name": "type_id",
          "type": "uint256"
        }
      ],
      "stateMutability": "nonpayable",
      "type": "function"
    },
    {
      "inputs": [
        {
          "internalType": "uint256",
          "name": "",
          "type": "uint256"
        }
      ],
      "name": "creators",
      "outputs": [
        {
          "internalType": "address",
          "name": "",
          "type": "address"
        }
      ],
      "stateMutability": "view",
      "type": "function"
    },
    {
      "inputs": [
        {
          "internalType": "address",
          "name": "account",
          "type": "address"
        },
        {
          "internalType": "address",
          "name": "operator",
          "type": "address"
        }
      ],
      "name": "isApprovedForAll",
      "outputs": [
        {
          "internalType": "bool",
          "name": "",
          "type": "bool"
        }
      ],
      "stateMutability": "view",
      "type": "function"
    },
    {
      "inputs": [
        {
          "internalType": "uint256",
          "name": "",
          "type": "uint256"
        }
      ],
      "name": "maxIndex",
      "outputs": [
        {
          "internalType": "uint256",
          "name": "",
          "type": "uint256"
        }
      ],
      "stateMutability": "view",
      "type": "function"
    },
    {
      "inputs": [
        {
          "internalType": "uint256",
          "name": "type_id",
          "type": "uint256"
        },
        {
          "internalType": "address[]",
          "name": "to",
          "type": "address[]"
        },
        {
          "internalType": "uint256[]",
          "name": "amounts",
          "type": "uint256[]"
        },
        {
          "internalType": "bytes",
          "name": "data",
          "type": "bytes"
        }
      ],
      "name": "mintFungible",
      "outputs": [],
      "stateMutability": "nonpayable",
      "type": "function"
    },
    {
      "inputs": [
        {
          "internalType": "uint256",
          "name": "type_id",
          "type": "uint256"
        },
        {
          "internalType": "address[]",
          "name": "to",
          "type": "address[]"
        },
        {
          "internalType": "bytes",
          "name": "data",
          "type": "bytes"
        }
      ],
      "name": "mintNonFungible",
      "outputs": [],
      "stateMutability": "nonpayable",
      "type": "function"
    },
    {
      "inputs": [
        {
          "internalType": "uint256",
          "name": "type_id",
          "type": "uint256"
        },
        {
          "internalType": "address[]",
          "name": "to",
          "type": "address[]"
        },
        {
          "internalType": "bytes",
          "name": "data",
          "type": "bytes"
        },
        {
          "internalType": "string",
          "name": "_uri",
          "type": "string"
        }
      ],
      "name": "mintNonFungibleWithURI",
      "outputs": [],
      "stateMutability": "nonpayable",
      "type": "function"
    },
    {
      "inputs": [
        {
          "internalType": "address",
          "name": "from",
          "type": "address"
        },
        {
          "internalType": "address",
          "name": "to",
          "type": "address"
        },
        {
          "internalType": "uint256[]",
          "name": "ids",
          "type": "uint256[]"
        },
        {
          "internalType": "uint256[]",
          "name": "amounts",
          "type": "uint256[]"
        },
        {
          "internalType": "bytes",
          "name": "data",
          "type": "bytes"
        }
      ],
      "name": "safeBatchTransferFrom",
      "outputs": [],
      "stateMutability": "nonpayable",
      "type": "function"
    },
    {
      "inputs": [
        {
          "internalType": "address",
          "name": "from",
          "type": "address"
        },
        {
          "internalType": "address",
          "name": "to",
          "type": "address"
        },
        {
          "internalType": "uint256",
          "name": "id",
          "type": "uint256"
        },
        {
          "internalType": "uint256",
          "name": "amount",
          "type": "uint256"
        },
        {
          "internalType": "bytes",
          "name": "data",
          "type": "bytes"
        }
      ],
      "name": "safeTransferFrom",
      "outputs": [],
      "stateMutability": "nonpayable",
      "type": "function"
    },
    {
      "inputs": [
        {
          "internalType": "address",
          "name": "operator",
          "type": "address"
        },
        {
          "internalType": "bool",
          "name": "approved",
          "type": "bool"
        }
      ],
      "name": "setApprovalForAll",
      "outputs": [],
      "stateMutability": "nonpayable",
      "type": "function"
    },
    {
      "inputs": [
        {
          "internalType": "address",
          "name": "operator",
          "type": "address"
        },
        {
          "internalType": "bool",
          "name": "approved",
          "type": "bool"
        },
        {
          "internalType": "bytes",
          "name": "data",
          "type": "bytes"
        }
      ],
      "name": "setApprovalForAllWithData",
      "outputs": [],
      "stateMutability": "nonpayable",
      "type": "function"
    },
    {
      "inputs": [
        {
          "internalType": "bytes4",
          "name": "interfaceId",
          "type": "bytes4"
        }
      ],
      "name": "supportsInterface",
      "outputs": [
        {
          "internalType": "bool",
          "name": "",
          "type": "bool"
        }
      ],
      "stateMutability": "view",
      "type": "function"
    },
    {
      "inputs": [
        {
          "internalType": "uint256",
          "name": "id",
          "type": "uint256"
        }
      ],
      "name": "uri",
      "outputs": [
        {
          "internalType": "string",
          "name": "",
          "type": "string"
        }
      ],
      "stateMutability": "view",
      "type": "function"
    }
  ],
  "bytecode": "0x60806040523480156200001157600080fd5b5060405162004524380380620045248339818101604052810190620000379190620001a8565b8062000049816200006a60201b60201c565b5080600690805190602001906200006292919062000086565b50506200035d565b80600290805190602001906200008292919062000086565b5050565b828054620000949062000282565b90600052602060002090601f016020900481019282620000b8576000855562000104565b82601f10620000d357805160ff191683800117855562000104565b8280016001018555821562000104579182015b8281111562000103578251825591602001919060010190620000e6565b5b50905062000113919062000117565b5090565b5b808211156200013257600081600090555060010162000118565b5090565b60006200014d620001478462000216565b620001ed565b9050828152602081018484840111156200016657600080fd5b620001738482856200024c565b509392505050565b600082601f8301126200018d57600080fd5b81516200019f84826020860162000136565b91505092915050565b600060208284031215620001bb57600080fd5b600082015167ffffffffffffffff811115620001d657600080fd5b620001e4848285016200017b565b91505092915050565b6000620001f96200020c565b9050620002078282620002b8565b919050565b6000604051905090565b600067ffffffffffffffff8211156200023457620002336200031d565b5b6200023f826200034c565b9050602081019050919050565b60005b838110156200026c5780820151818401526020810190506200024f565b838111156200027c576000848401525b50505050565b600060028204905060018216806200029b57607f821691505b60208210811415620002b257620002b1620002ee565b5b50919050565b620002c3826200034c565b810181811067ffffffffffffffff82111715620002e557620002e46200031d565b5b80604052505050565b7f4e487b7100000000000000000000000000000000000000000000000000000000600052602260045260246000fd5b7f4e487b7100000000000000000000000000000000000000000000000000000000600052604160045260246000fd5b6000601f19601f8301169050919050565b6141b7806200036d6000396000f3fe608060405234801561001057600080fd5b50600436106101155760003560e01c806371cc1656116100a2578063a22cb46511610071578063a22cb46514610300578063b944eb291461031c578063cd53d08e14610338578063e985e9c514610368578063f242432a1461039857610115565b806371cc16561461027a5780637a0101a2146102aa5780637e53b65d146102c85780638a94b05f146102e457610115565b8063183fb254116100e9578063183fb254146101da5780631cbf311d146101f65780632eb2c2d6146102125780634e1273f41461022e57806354dbdbf41461025e57610115565b8062fdd58e1461011a57806301ffc9a71461014a57806308d7d4691461017a5780630e89341c146101aa575b600080fd5b610134600480360381019061012f9190612b85565b6103b4565b6040516101419190613737565b60405180910390f35b610164600480360381019061015f9190612d05565b61047d565b60405161017191906134b6565b60405180910390f35b610194600480360381019061018f9190612d57565b6104f7565b6040516101a19190613737565b60405180910390f35b6101c460048036038101906101bf9190612d57565b61050f565b6040516101d191906134f5565b60405180910390f35b6101f460048036038101906101ef9190612d80565b61065f565b005b610210600480360381019061020b9190612b19565b610868565b005b61022c6004803603810190610227919061298f565b610878565b005b61024860048036038101906102439190612c41565b610919565b604051610255919061345d565b60405180910390f35b61027860048036038101906102739190612e39565b610aca565b005b610294600480360381019061028f9190612cad565b610cb4565b6040516102a19190613737565b60405180910390f35b6102b2610db4565b6040516102bf91906134f5565b60405180910390f35b6102e260048036038101906102dd9190612ec2565b610e46565b005b6102fe60048036038101906102f99190612bc1565b611042565b005b61031a60048036038101906103159190612add565b6110e1565b005b61033660048036038101906103319190612f75565b6110f7565b005b610352600480360381019061034d9190612d57565b6111e0565b60405161035f9190613380565b60405180910390f35b610382600480360381019061037d9190612953565b611213565b60405161038f91906134b6565b60405180910390f35b6103b260048036038101906103ad9190612a4e565b6112a7565b005b60008073ffffffffffffffffffffffffffffffffffffffff168373ffffffffffffffffffffffffffffffffffffffff161415610425576040517f08c379a000000000000000000000000000000000000000000000000000000000815260040161041c90613557565b60405180910390fd5b60008083815260200190815260200160002060008473ffffffffffffffffffffffffffffffffffffffff1673ffffffffffffffffffffffffffffffffffffffff16815260200190815260200160002054905092915050565b60007fa1d87d57000000000000000000000000000000000000000000000000000000007bffffffffffffffffffffffffffffffffffffffffffffffffffffffff1916827bffffffffffffffffffffffffffffffffffffffffffffffffffffffff191614806104f057506104ef82611348565b5b9050919050565b60056020528060005260406000206000915090505481565b60606000600760008481526020019081526020016000208054610531906139d7565b80601f016020809104026020016040519081016040528092919081815260200182805461055d906139d7565b80156105aa5780601f1061057f576101008083540402835291602001916105aa565b820191906000526020600020905b81548152906001019060200180831161058d57829003601f168201915b50505050509050600081905060008151141561065457600680546105cd906139d7565b80601f01602080910402602001604051908101604052809291908181526020018280546105f9906139d7565b80156106465780601f1061061b57610100808354040283529160200191610646565b820191906000526020600020905b81548152906001019060200180831161062957829003601f168201915b50505050509250505061065a565b81925050505b919050565b8661066861142a565b73ffffffffffffffffffffffffffffffffffffffff166004600083815260200190815260200160002060009054906101000a900473ffffffffffffffffffffffffffffffffffffffff1673ffffffffffffffffffffffffffffffffffffffff16146106d257600080fd5b6106db88611432565b61071a576040517f08c379a0000000000000000000000000000000000000000000000000000000008152600401610711906135f7565b60405180910390fd5b848490508787905014610762576040517f08c379a000000000000000000000000000000000000000000000000000000000815260040161075990613657565b60405180910390fd5b60005b8787905081101561085d5761084c8888838181106107ac577f4e487b7100000000000000000000000000000000000000000000000000000000600052603260045260246000fd5b90506020020160208101906107c1919061292a565b8a8888858181106107fb577f4e487b7100000000000000000000000000000000000000000000000000000000600052603260045260246000fd5b9050602002013587878080601f016020809104026020016040519081016040528093929190818152602001838380828437600081840152601f19601f82011690508083019250505050505050611460565b8061085690613a3a565b9050610765565b505050505050505050565b61087284846110e1565b50505050565b61088061142a565b73ffffffffffffffffffffffffffffffffffffffff168573ffffffffffffffffffffffffffffffffffffffff1614806108c657506108c5856108c061142a565b611213565b5b610905576040517f08c379a00000000000000000000000000000000000000000000000000000000081526004016108fc90613637565b60405180910390fd5b6109128585858585611611565b5050505050565b6060815183511461095f576040517f08c379a0000000000000000000000000000000000000000000000000000000008152600401610956906136d7565b60405180910390fd5b6000835167ffffffffffffffff8111156109a2577f4e487b7100000000000000000000000000000000000000000000000000000000600052604160045260246000fd5b6040519080825280602002602001820160405280156109d05781602001602082028036833780820191505090505b50905060005b8451811015610abf57610a69858281518110610a1b577f4e487b7100000000000000000000000000000000000000000000000000000000600052603260045260246000fd5b6020026020010151858381518110610a5c577f4e487b7100000000000000000000000000000000000000000000000000000000600052603260045260246000fd5b60200260200101516103b4565b828281518110610aa2577f4e487b7100000000000000000000000000000000000000000000000000000000600052603260045260246000fd5b60200260200101818152505080610ab890613a3a565b90506109d6565b508091505092915050565b84610ad361142a565b73ffffffffffffffffffffffffffffffffffffffff166004600083815260200190815260200160002060009054906101000a900473ffffffffffffffffffffffffffffffffffffffff1673ffffffffffffffffffffffffffffffffffffffff1614610b3d57600080fd5b610b468661197f565b610b85576040517f08c379a0000000000000000000000000000000000000000000000000000000008152600401610b7c906135d7565b60405180910390fd5b600060016005600089815260200190815260200160002054610ba791906138cb565b9050610bc986869050600560008a8152602001908152602001600020546119ad565b600560008981526020019081526020016000208190555060005b86869050811015610caa57610c99878783818110610c2a577f4e487b7100000000000000000000000000000000000000000000000000000000600052603260045260246000fd5b9050602002016020810190610c3f919061292a565b8284610c4b91906138cb565b8a17600188888080601f016020809104026020016040519081016040528093929190818152602001838380828437600081840152601f19601f82011690508083019250505050505050611460565b80610ca390613a3a565b9050610be3565b5050505050505050565b60006080600360008154610cc790613a3a565b919050819055901b905083610cfc577f8000000000000000000000000000000000000000000000000000000000000000811790505b610d0461142a565b6004600083815260200190815260200160002060006101000a81548173ffffffffffffffffffffffffffffffffffffffff021916908373ffffffffffffffffffffffffffffffffffffffff16021790555080610d5e61142a565b73ffffffffffffffffffffffffffffffffffffffff167f0d2ce24070e07853454690ae0a0416ddd4845188f8dbfe0ef3a761acb3d2e34e8585604051610da59291906134d1565b60405180910390a39392505050565b606060068054610dc3906139d7565b80601f0160208091040260200160405190810160405280929190818152602001828054610def906139d7565b8015610e3c5780601f10610e1157610100808354040283529160200191610e3c565b820191906000526020600020905b815481529060010190602001808311610e1f57829003601f168201915b5050505050905090565b85610e4f61142a565b73ffffffffffffffffffffffffffffffffffffffff166004600083815260200190815260200160002060009054906101000a900473ffffffffffffffffffffffffffffffffffffffff1673ffffffffffffffffffffffffffffffffffffffff1614610eb957600080fd5b610ec28761197f565b610f01576040517f08c379a0000000000000000000000000000000000000000000000000000000008152600401610ef8906135d7565b60405180910390fd5b60006001600560008a815260200190815260200160002054610f2391906138cb565b9050610f4587879050600560008b8152602001908152602001600020546119ad565b600560008a81526020019081526020016000208190555060005b878790508110156110375760008183610f7891906138cb565b8a17905061101a898984818110610fb8577f4e487b7100000000000000000000000000000000000000000000000000000000600052603260045260246000fd5b9050602002016020810190610fcd919061292a565b8260018a8a8080601f016020809104026020016040519081016040528093929190818152602001838380828437600081840152601f19601f82011690508083019250505050505050611460565b6110258a82876110f7565b508061103090613a3a565b9050610f5f565b505050505050505050565b61104a61142a565b73ffffffffffffffffffffffffffffffffffffffff168573ffffffffffffffffffffffffffffffffffffffff161480611090575061108f8561108a61142a565b611213565b5b6110cf576040517f08c379a00000000000000000000000000000000000000000000000000000000081526004016110c690613597565b60405180910390fd5b6110da8585856119c3565b5050505050565b6110f36110ec61142a565b8383611c0a565b5050565b8261110061142a565b73ffffffffffffffffffffffffffffffffffffffff166004600083815260200190815260200160002060009054906101000a900473ffffffffffffffffffffffffffffffffffffffff1673ffffffffffffffffffffffffffffffffffffffff161461116a57600080fd5b6111738461197f565b6111b2576040517f08c379a00000000000000000000000000000000000000000000000000000000081526004016111a9906135d7565b60405180910390fd5b816007600085815260200190815260200160002090805190602001906111d9929190612544565b5050505050565b60046020528060005260406000206000915054906101000a900473ffffffffffffffffffffffffffffffffffffffff1681565b6000600160008473ffffffffffffffffffffffffffffffffffffffff1673ffffffffffffffffffffffffffffffffffffffff16815260200190815260200160002060008373ffffffffffffffffffffffffffffffffffffffff1673ffffffffffffffffffffffffffffffffffffffff16815260200190815260200160002060009054906101000a900460ff16905092915050565b6112af61142a565b73ffffffffffffffffffffffffffffffffffffffff168573ffffffffffffffffffffffffffffffffffffffff1614806112f557506112f4856112ef61142a565b611213565b5b611334576040517f08c379a000000000000000000000000000000000000000000000000000000000815260040161132b906135b7565b60405180910390fd5b6113418585858585611d77565b5050505050565b60007fd9b67a26000000000000000000000000000000000000000000000000000000007bffffffffffffffffffffffffffffffffffffffffffffffffffffffff1916827bffffffffffffffffffffffffffffffffffffffffffffffffffffffff1916148061141357507f0e89341c000000000000000000000000000000000000000000000000000000007bffffffffffffffffffffffffffffffffffffffffffffffffffffffff1916827bffffffffffffffffffffffffffffffffffffffffffffffffffffffff1916145b80611423575061142282612013565b5b9050919050565b600033905090565b6000807f80000000000000000000000000000000000000000000000000000000000000008316149050919050565b600073ffffffffffffffffffffffffffffffffffffffff168473ffffffffffffffffffffffffffffffffffffffff1614156114d0576040517f08c379a00000000000000000000000000000000000000000000000000000000081526004016114c790613717565b60405180910390fd5b60006114da61142a565b905060006114e78561207d565b905060006114f48561207d565b905061150583600089858589612143565b8460008088815260200190815260200160002060008973ffffffffffffffffffffffffffffffffffffffff1673ffffffffffffffffffffffffffffffffffffffff168152602001908152602001600020600082825461156491906138cb565b925050819055508673ffffffffffffffffffffffffffffffffffffffff16600073ffffffffffffffffffffffffffffffffffffffff168473ffffffffffffffffffffffffffffffffffffffff167fc3d58168c5ae7397731d063d5bbf3d657854427343f4c083240f7aacaa2d0f6289896040516115e2929190613752565b60405180910390a46115f98360008985858961214b565b61160883600089898989612153565b50505050505050565b8151835114611655576040517f08c379a000000000000000000000000000000000000000000000000000000000815260040161164c906136f7565b60405180910390fd5b600073ffffffffffffffffffffffffffffffffffffffff168473ffffffffffffffffffffffffffffffffffffffff1614156116c5576040517f08c379a00000000000000000000000000000000000000000000000000000000081526004016116bc90613617565b60405180910390fd5b60006116cf61142a565b90506116df818787878787612143565b60005b84518110156118dc576000858281518110611726577f4e487b7100000000000000000000000000000000000000000000000000000000600052603260045260246000fd5b60200260200101519050600085838151811061176b577f4e487b7100000000000000000000000000000000000000000000000000000000600052603260045260246000fd5b60200260200101519050600080600084815260200190815260200160002060008b73ffffffffffffffffffffffffffffffffffffffff1673ffffffffffffffffffffffffffffffffffffffff1681526020019081526020016000205490508181101561180c576040517f08c379a000000000000000000000000000000000000000000000000000000000815260040161180390613697565b60405180910390fd5b81810360008085815260200190815260200160002060008c73ffffffffffffffffffffffffffffffffffffffff1673ffffffffffffffffffffffffffffffffffffffff168152602001908152602001600020819055508160008085815260200190815260200160002060008b73ffffffffffffffffffffffffffffffffffffffff1673ffffffffffffffffffffffffffffffffffffffff16815260200190815260200160002060008282546118c191906138cb565b92505081905550505050806118d590613a3a565b90506116e2565b508473ffffffffffffffffffffffffffffffffffffffff168673ffffffffffffffffffffffffffffffffffffffff168273ffffffffffffffffffffffffffffffffffffffff167f4a39dc06d4c0dbc64b70af90fd698a233a518aa5d07e595d983b8c0526c8f7fb878760405161195392919061347f565b60405180910390a461196981878787878761214b565b61197781878787878761233a565b505050505050565b60007f8000000000000000000000000000000000000000000000000000000000000000808316149050919050565b600081836119bb91906138cb565b905092915050565b600073ffffffffffffffffffffffffffffffffffffffff168373ffffffffffffffffffffffffffffffffffffffff161415611a33576040517f08c379a0000000000000000000000000000000000000000000000000000000008152600401611a2a90613677565b60405180910390fd5b6000611a3d61142a565b90506000611a4a8461207d565b90506000611a578461207d565b9050611a7783876000858560405180602001604052806000815250612143565b600080600087815260200190815260200160002060008873ffffffffffffffffffffffffffffffffffffffff1673ffffffffffffffffffffffffffffffffffffffff16815260200190815260200160002054905084811015611b0e576040517f08c379a0000000000000000000000000000000000000000000000000000000008152600401611b0590613577565b60405180910390fd5b84810360008088815260200190815260200160002060008973ffffffffffffffffffffffffffffffffffffffff1673ffffffffffffffffffffffffffffffffffffffff16815260200190815260200160002081905550600073ffffffffffffffffffffffffffffffffffffffff168773ffffffffffffffffffffffffffffffffffffffff168573ffffffffffffffffffffffffffffffffffffffff167fc3d58168c5ae7397731d063d5bbf3d657854427343f4c083240f7aacaa2d0f628989604051611bdb929190613752565b60405180910390a4611c018488600086866040518060200160405280600081525061214b565b50505050505050565b8173ffffffffffffffffffffffffffffffffffffffff168373ffffffffffffffffffffffffffffffffffffffff161415611c79576040517f08c379a0000000000000000000000000000000000000000000000000000000008152600401611c70906136b7565b60405180910390fd5b80600160008573ffffffffffffffffffffffffffffffffffffffff1673ffffffffffffffffffffffffffffffffffffffff16815260200190815260200160002060008473ffffffffffffffffffffffffffffffffffffffff1673ffffffffffffffffffffffffffffffffffffffff16815260200190815260200160002060006101000a81548160ff0219169083151502179055508173ffffffffffffffffffffffffffffffffffffffff168373ffffffffffffffffffffffffffffffffffffffff167f17307eab39ab6107e8899845ad3d59bd9653f200f220920489ca2b5937696c3183604051611d6a91906134b6565b60405180910390a3505050565b600073ffffffffffffffffffffffffffffffffffffffff168473ffffffffffffffffffffffffffffffffffffffff161415611de7576040517f08c379a0000000000000000000000000000000000000000000000000000000008152600401611dde90613617565b60405180910390fd5b6000611df161142a565b90506000611dfe8561207d565b90506000611e0b8561207d565b9050611e1b838989858589612143565b600080600088815260200190815260200160002060008a73ffffffffffffffffffffffffffffffffffffffff1673ffffffffffffffffffffffffffffffffffffffff16815260200190815260200160002054905085811015611eb2576040517f08c379a0000000000000000000000000000000000000000000000000000000008152600401611ea990613697565b60405180910390fd5b85810360008089815260200190815260200160002060008b73ffffffffffffffffffffffffffffffffffffffff1673ffffffffffffffffffffffffffffffffffffffff168152602001908152602001600020819055508560008089815260200190815260200160002060008a73ffffffffffffffffffffffffffffffffffffffff1673ffffffffffffffffffffffffffffffffffffffff1681526020019081526020016000206000828254611f6791906138cb565b925050819055508773ffffffffffffffffffffffffffffffffffffffff168973ffffffffffffffffffffffffffffffffffffffff168573ffffffffffffffffffffffffffffffffffffffff167fc3d58168c5ae7397731d063d5bbf3d657854427343f4c083240f7aacaa2d0f628a8a604051611fe4929190613752565b60405180910390a4611ffa848a8a86868a61214b565b612008848a8a8a8a8a612153565b505050505050505050565b60007f01ffc9a7000000000000000000000000000000000000000000000000000000007bffffffffffffffffffffffffffffffffffffffffffffffffffffffff1916827bffffffffffffffffffffffffffffffffffffffffffffffffffffffff1916149050919050565b60606000600167ffffffffffffffff8111156120c2577f4e487b7100000000000000000000000000000000000000000000000000000000600052604160045260246000fd5b6040519080825280602002602001820160405280156120f05781602001602082028036833780820191505090505b509050828160008151811061212e577f4e487b7100000000000000000000000000000000000000000000000000000000600052603260045260246000fd5b60200260200101818152505080915050919050565b505050505050565b505050505050565b6121728473ffffffffffffffffffffffffffffffffffffffff16612521565b15612332578373ffffffffffffffffffffffffffffffffffffffff1663f23a6e6187878686866040518663ffffffff1660e01b81526004016121b8959493929190613403565b602060405180830381600087803b1580156121d257600080fd5b505af192505050801561220357506040513d601f19601f820116820180604052508101906122009190612d2e565b60015b6122a95761220f613b10565b806308c379a0141561226c575061222461408f565b8061222f575061226e565b806040517f08c379a000000000000000000000000000000000000000000000000000000000815260040161226391906134f5565b60405180910390fd5b505b6040517f08c379a00000000000000000000000000000000000000000000000000000000081526004016122a090613517565b60405180910390fd5b63f23a6e6160e01b7bffffffffffffffffffffffffffffffffffffffffffffffffffffffff1916817bffffffffffffffffffffffffffffffffffffffffffffffffffffffff191614612330576040517f08c379a000000000000000000000000000000000000000000000000000000000815260040161232790613537565b60405180910390fd5b505b505050505050565b6123598473ffffffffffffffffffffffffffffffffffffffff16612521565b15612519578373ffffffffffffffffffffffffffffffffffffffff1663bc197c8187878686866040518663ffffffff1660e01b815260040161239f95949392919061339b565b602060405180830381600087803b1580156123b957600080fd5b505af19250505080156123ea57506040513d601f19601f820116820180604052508101906123e79190612d2e565b60015b612490576123f6613b10565b806308c379a01415612453575061240b61408f565b806124165750612455565b806040517f08c379a000000000000000000000000000000000000000000000000000000000815260040161244a91906134f5565b60405180910390fd5b505b6040517f08c379a000000000000000000000000000000000000000000000000000000000815260040161248790613517565b60405180910390fd5b63bc197c8160e01b7bffffffffffffffffffffffffffffffffffffffffffffffffffffffff1916817bffffffffffffffffffffffffffffffffffffffffffffffffffffffff191614612517576040517f08c379a000000000000000000000000000000000000000000000000000000000815260040161250e90613537565b60405180910390fd5b505b505050505050565b6000808273ffffffffffffffffffffffffffffffffffffffff163b119050919050565b828054612550906139d7565b90600052602060002090601f01602090048101928261257257600085556125b9565b82601f1061258b57805160ff19168380011785556125b9565b828001600101855582156125b9579182015b828111156125b857825182559160200191906001019061259d565b5b5090506125c691906125ca565b5090565b5b808211156125e35760008160009055506001016125cb565b5090565b60006125fa6125f5846137a0565b61377b565b9050808382526020820190508285602086028201111561261957600080fd5b60005b85811015612649578161262f888261273b565b84526020840193506020830192505060018101905061261c565b5050509392505050565b6000612666612661846137cc565b61377b565b9050808382526020820190508285602086028201111561268557600080fd5b60005b858110156126b5578161269b8882612915565b845260208401935060208301925050600181019050612688565b5050509392505050565b60006126d26126cd846137f8565b61377b565b9050828152602081018484840111156126ea57600080fd5b6126f5848285613995565b509392505050565b600061271061270b84613829565b61377b565b90508281526020810184848401111561272857600080fd5b612733848285613995565b509392505050565b60008135905061274a81614125565b92915050565b60008083601f84011261276257600080fd5b8235905067ffffffffffffffff81111561277b57600080fd5b60208301915083602082028301111561279357600080fd5b9250929050565b600082601f8301126127ab57600080fd5b81356127bb8482602086016125e7565b91505092915050565b60008083601f8401126127d657600080fd5b8235905067ffffffffffffffff8111156127ef57600080fd5b60208301915083602082028301111561280757600080fd5b9250929050565b600082601f83011261281f57600080fd5b813561282f848260208601612653565b91505092915050565b6000813590506128478161413c565b92915050565b60008135905061285c81614153565b92915050565b60008151905061287181614153565b92915050565b60008083601f84011261288957600080fd5b8235905067ffffffffffffffff8111156128a257600080fd5b6020830191508360018202830111156128ba57600080fd5b9250929050565b600082601f8301126128d257600080fd5b81356128e28482602086016126bf565b91505092915050565b600082601f8301126128fc57600080fd5b813561290c8482602086016126fd565b91505092915050565b6000813590506129248161416a565b92915050565b60006020828403121561293c57600080fd5b600061294a8482850161273b565b91505092915050565b6000806040838503121561296657600080fd5b60006129748582860161273b565b92505060206129858582860161273b565b9150509250929050565b600080600080600060a086880312156129a757600080fd5b60006129b58882890161273b565b95505060206129c68882890161273b565b945050604086013567ffffffffffffffff8111156129e357600080fd5b6129ef8882890161280e565b935050606086013567ffffffffffffffff811115612a0c57600080fd5b612a188882890161280e565b925050608086013567ffffffffffffffff811115612a3557600080fd5b612a41888289016128c1565b9150509295509295909350565b600080600080600060a08688031215612a6657600080fd5b6000612a748882890161273b565b9550506020612a858882890161273b565b9450506040612a9688828901612915565b9350506060612aa788828901612915565b925050608086013567ffffffffffffffff811115612ac457600080fd5b612ad0888289016128c1565b9150509295509295909350565b60008060408385031215612af057600080fd5b6000612afe8582860161273b565b9250506020612b0f85828601612838565b9150509250929050565b60008060008060608587031215612b2f57600080fd5b6000612b3d8782880161273b565b9450506020612b4e87828801612838565b935050604085013567ffffffffffffffff811115612b6b57600080fd5b612b7787828801612877565b925092505092959194509250565b60008060408385031215612b9857600080fd5b6000612ba68582860161273b565b9250506020612bb785828601612915565b9150509250929050565b600080600080600060808688031215612bd957600080fd5b6000612be78882890161273b565b9550506020612bf888828901612915565b9450506040612c0988828901612915565b935050606086013567ffffffffffffffff811115612c2657600080fd5b612c3288828901612877565b92509250509295509295909350565b60008060408385031215612c5457600080fd5b600083013567ffffffffffffffff811115612c6e57600080fd5b612c7a8582860161279a565b925050602083013567ffffffffffffffff811115612c9757600080fd5b612ca38582860161280e565b9150509250929050565b600080600060408486031215612cc257600080fd5b6000612cd086828701612838565b935050602084013567ffffffffffffffff811115612ced57600080fd5b612cf986828701612877565b92509250509250925092565b600060208284031215612d1757600080fd5b6000612d258482850161284d565b91505092915050565b600060208284031215612d4057600080fd5b6000612d4e84828501612862565b91505092915050565b600060208284031215612d6957600080fd5b6000612d7784828501612915565b91505092915050565b60008060008060008060006080888a031215612d9b57600080fd5b6000612da98a828b01612915565b975050602088013567ffffffffffffffff811115612dc657600080fd5b612dd28a828b01612750565b9650965050604088013567ffffffffffffffff811115612df157600080fd5b612dfd8a828b016127c4565b9450945050606088013567ffffffffffffffff811115612e1c57600080fd5b612e288a828b01612877565b925092505092959891949750929550565b600080600080600060608688031215612e5157600080fd5b6000612e5f88828901612915565b955050602086013567ffffffffffffffff811115612e7c57600080fd5b612e8888828901612750565b9450945050604086013567ffffffffffffffff811115612ea757600080fd5b612eb388828901612877565b92509250509295509295909350565b60008060008060008060808789031215612edb57600080fd5b6000612ee989828a01612915565b965050602087013567ffffffffffffffff811115612f0657600080fd5b612f1289828a01612750565b9550955050604087013567ffffffffffffffff811115612f3157600080fd5b612f3d89828a01612877565b9350935050606087013567ffffffffffffffff811115612f5c57600080fd5b612f6889828a016128eb565b9150509295509295509295565b600080600060608486031215612f8a57600080fd5b6000612f9886828701612915565b9350506020612fa986828701612915565b925050604084013567ffffffffffffffff811115612fc657600080fd5b612fd2868287016128eb565b9150509250925092565b6000612fe88383613362565b60208301905092915050565b612ffd81613921565b82525050565b600061300e8261386a565b6130188185613898565b93506130238361385a565b8060005b8381101561305457815161303b8882612fdc565b97506130468361388b565b925050600181019050613027565b5085935050505092915050565b61306a81613933565b82525050565b600061307c83856138a9565b9350613089838584613995565b61309283613b32565b840190509392505050565b60006130a882613875565b6130b281856138a9565b93506130c28185602086016139a4565b6130cb81613b32565b840191505092915050565b60006130e182613880565b6130eb81856138ba565b93506130fb8185602086016139a4565b61310481613b32565b840191505092915050565b600061311c6034836138ba565b915061312782613b50565b604082019050919050565b600061313f6028836138ba565b915061314a82613b9f565b604082019050919050565b6000613162602b836138ba565b915061316d82613bee565b604082019050919050565b60006131856024836138ba565b915061319082613c3d565b604082019050919050565b60006131a86036836138ba565b91506131b382613c8c565b604082019050919050565b60006131cb6029836138ba565b91506131d682613cdb565b604082019050919050565b60006131ee603f836138ba565b91506131f982613d2a565b604082019050919050565b6000613211603b836138ba565b915061321c82613d79565b604082019050919050565b60006132346025836138ba565b915061323f82613dc8565b604082019050919050565b60006132576032836138ba565b915061326282613e17565b604082019050919050565b600061327a6034836138ba565b915061328582613e66565b604082019050919050565b600061329d6023836138ba565b91506132a882613eb5565b604082019050919050565b60006132c0602a836138ba565b91506132cb82613f04565b604082019050919050565b60006132e36029836138ba565b91506132ee82613f53565b604082019050919050565b60006133066029836138ba565b915061331182613fa2565b604082019050919050565b60006133296028836138ba565b915061333482613ff1565b604082019050919050565b600061334c6021836138ba565b915061335782614040565b604082019050919050565b61336b8161398b565b82525050565b61337a8161398b565b82525050565b60006020820190506133956000830184612ff4565b92915050565b600060a0820190506133b06000830188612ff4565b6133bd6020830187612ff4565b81810360408301526133cf8186613003565b905081810360608301526133e38185613003565b905081810360808301526133f7818461309d565b90509695505050505050565b600060a0820190506134186000830188612ff4565b6134256020830187612ff4565b6134326040830186613371565b61343f6060830185613371565b8181036080830152613451818461309d565b90509695505050505050565b600060208201905081810360008301526134778184613003565b905092915050565b600060408201905081810360008301526134998185613003565b905081810360208301526134ad8184613003565b90509392505050565b60006020820190506134cb6000830184613061565b92915050565b600060208201905081810360008301526134ec818486613070565b90509392505050565b6000602082019050818103600083015261350f81846130d6565b905092915050565b600060208201905081810360008301526135308161310f565b9050919050565b6000602082019050818103600083015261355081613132565b9050919050565b6000602082019050818103600083015261357081613155565b9050919050565b6000602082019050818103600083015261359081613178565b9050919050565b600060208201905081810360008301526135b08161319b565b9050919050565b600060208201905081810360008301526135d0816131be565b9050919050565b600060208201905081810360008301526135f0816131e1565b9050919050565b6000602082019050818103600083015261361081613204565b9050919050565b6000602082019050818103600083015261363081613227565b9050919050565b600060208201905081810360008301526136508161324a565b9050919050565b600060208201905081810360008301526136708161326d565b9050919050565b6000602082019050818103600083015261369081613290565b9050919050565b600060208201905081810360008301526136b0816132b3565b9050919050565b600060208201905081810360008301526136d0816132d6565b9050919050565b600060208201905081810360008301526136f0816132f9565b9050919050565b600060208201905081810360008301526137108161331c565b9050919050565b600060208201905081810360008301526137308161333f565b9050919050565b600060208201905061374c6000830184613371565b92915050565b60006040820190506137676000830185613371565b6137746020830184613371565b9392505050565b6000613785613796565b90506137918282613a09565b919050565b6000604051905090565b600067ffffffffffffffff8211156137bb576137ba613ae1565b5b602082029050602081019050919050565b600067ffffffffffffffff8211156137e7576137e6613ae1565b5b602082029050602081019050919050565b600067ffffffffffffffff82111561381357613812613ae1565b5b61381c82613b32565b9050602081019050919050565b600067ffffffffffffffff82111561384457613843613ae1565b5b61384d82613b32565b9050602081019050919050565b6000819050602082019050919050565b600081519050919050565b600081519050919050565b600081519050919050565b6000602082019050919050565b600082825260208201905092915050565b600082825260208201905092915050565b600082825260208201905092915050565b60006138d68261398b565b91506138e18361398b565b9250827fffffffffffffffffffffffffffffffffffffffffffffffffffffffffffffffff0382111561391657613915613a83565b5b828201905092915050565b600061392c8261396b565b9050919050565b60008115159050919050565b60007fffffffff0000000000000000000000000000000000000000000000000000000082169050919050565b600073ffffffffffffffffffffffffffffffffffffffff82169050919050565b6000819050919050565b82818337600083830152505050565b60005b838110156139c25780820151818401526020810190506139a7565b838111156139d1576000848401525b50505050565b600060028204905060018216806139ef57607f821691505b60208210811415613a0357613a02613ab2565b5b50919050565b613a1282613b32565b810181811067ffffffffffffffff82111715613a3157613a30613ae1565b5b80604052505050565b6000613a458261398b565b91507fffffffffffffffffffffffffffffffffffffffffffffffffffffffffffffffff821415613a7857613a77613a83565b5b600182019050919050565b7f4e487b7100000000000000000000000000000000000000000000000000000000600052601160045260246000fd5b7f4e487b7100000000000000000000000000000000000000000000000000000000600052602260045260246000fd5b7f4e487b7100000000000000000000000000000000000000000000000000000000600052604160045260246000fd5b600060033d1115613b2f5760046000803e613b2c600051613b43565b90505b90565b6000601f19601f8301169050919050565b60008160e01c9050919050565b7f455243313135353a207472616e7366657220746f206e6f6e204552433131353560008201527f526563656976657220696d706c656d656e746572000000000000000000000000602082015250565b7f455243313135353a204552433131353552656365697665722072656a6563746560008201527f6420746f6b656e73000000000000000000000000000000000000000000000000602082015250565b7f455243313135353a2062616c616e636520717565727920666f7220746865207a60008201527f65726f2061646472657373000000000000000000000000000000000000000000602082015250565b7f455243313135353a206275726e20616d6f756e7420657863656564732062616c60008201527f616e636500000000000000000000000000000000000000000000000000000000602082015250565b7f455243313135354d6978656446756e6769626c653a2063616c6c65722069732060008201527f6e6f74206f776e6572206e6f7220617070726f76656400000000000000000000602082015250565b7f455243313135353a2063616c6c6572206973206e6f74206f776e6572206e6f7260008201527f20617070726f7665640000000000000000000000000000000000000000000000602082015250565b7f455243313135354d6978656446756e6769626c653a20696420646f6573206e6f60008201527f7420726570726573656e742061206e6f6e2d66756e6769626c65207479706500602082015250565b7f455243313135354d6978656446756e6769626c653a20696420646f6573206e6f60008201527f7420726570726573656e7420612066756e6769626c6520747970650000000000602082015250565b7f455243313135353a207472616e7366657220746f20746865207a65726f20616460008201527f6472657373000000000000000000000000000000000000000000000000000000602082015250565b7f455243313135353a207472616e736665722063616c6c6572206973206e6f742060008201527f6f776e6572206e6f7220617070726f7665640000000000000000000000000000602082015250565b7f455243313135354d6978656446756e6769626c653a20746f20616e6420616d6f60008201527f756e7473206c656e677468206d69736d61746368000000000000000000000000602082015250565b7f455243313135353a206275726e2066726f6d20746865207a65726f206164647260008201527f6573730000000000000000000000000000000000000000000000000000000000602082015250565b7f455243313135353a20696e73756666696369656e742062616c616e636520666f60008201527f72207472616e7366657200000000000000000000000000000000000000000000602082015250565b7f455243313135353a2073657474696e6720617070726f76616c2073746174757360008201527f20666f722073656c660000000000000000000000000000000000000000000000602082015250565b7f455243313135353a206163636f756e747320616e6420696473206c656e67746860008201527f206d69736d617463680000000000000000000000000000000000000000000000602082015250565b7f455243313135353a2069647320616e6420616d6f756e7473206c656e6774682060008201527f6d69736d61746368000000000000000000000000000000000000000000000000602082015250565b7f455243313135353a206d696e7420746f20746865207a65726f2061646472657360008201527f7300000000000000000000000000000000000000000000000000000000000000602082015250565b600060443d101561409f57614122565b6140a7613796565b60043d036004823e80513d602482011167ffffffffffffffff821117156140cf575050614122565b808201805167ffffffffffffffff8111156140ed5750505050614122565b80602083010160043d03850181111561410a575050505050614122565b61411982602001850186613a09565b82955050505050505b90565b61412e81613921565b811461413957600080fd5b50565b61414581613933565b811461415057600080fd5b50565b61415c8161393f565b811461416757600080fd5b50565b6141738161398b565b811461417e57600080fd5b5056fea26469706673582212204fdf750e16aa1fe5ce34d26e3ca05a16726f416ae430ccefe9a917dbb14fb7d864736f6c63430008040033",
  "linkReferences": {},
  "deployedLinkReferences": {}
}