{
  "_format": "hh-sol-artifact-1",
  "contractName": "ERC1155MixedFungible",
  "sourceName": "contracts/ERC1155MixedFungible.sol",
  "abi": [
    {
      "inputs": [
        {
          "internalType": "string",
          "name": "uri",
          "type": "string"
        }
      ],
      "stateMutability": "nonpayable",
      "type": "constructor"
    },
    {
      "anonymous": false,
      "inputs": [
        {
          "indexed": true,
          "internalType": "address",
          "name": "account",
          "type": "address"
        },
        {
          "indexed": true,
          "internalType": "address",
          "name": "operator",
          "type": "address"
        },
        {
          "indexed": false,
          "internalType": "bool",
          "name": "approved",
          "type": "bool"
        }
      ],
      "name": "ApprovalForAll",
      "type": "event"
    },
    {
      "anonymous": false,
      "inputs": [
        {
          "indexed": true,
          "internalType": "address",
          "name": "operator",
          "type": "address"
        },
        {
          "indexed": true,
          "internalType": "bool",
          "name": "is_fungible",
          "type": "bool"
        },
        {
          "indexed": false,
          "internalType": "uint256",
          "name": "start_id",
          "type": "uint256"
        },
        {
          "indexed": false,
          "internalType": "uint256",
          "name": "end_id",
          "type": "uint256"
        },
        {
          "indexed": false,
          "internalType": "bytes",
          "name": "data",
          "type": "bytes"
        }
      ],
      "name": "TokenPoolCreation",
      "type": "event"
    },
    {
      "anonymous": false,
      "inputs": [
        {
          "indexed": true,
          "internalType": "address",
          "name": "operator",
          "type": "address"
        },
        {
          "indexed": true,
          "internalType": "address",
          "name": "from",
          "type": "address"
        },
        {
          "indexed": true,
          "internalType": "address",
          "name": "to",
          "type": "address"
        },
        {
          "indexed": false,
          "internalType": "uint256[]",
          "name": "ids",
          "type": "uint256[]"
        },
        {
          "indexed": false,
          "internalType": "uint256[]",
          "name": "values",
          "type": "uint256[]"
        }
      ],
      "name": "TransferBatch",
      "type": "event"
    },
    {
      "anonymous": false,
      "inputs": [
        {
          "indexed": true,
          "internalType": "address",
          "name": "operator",
          "type": "address"
        },
        {
          "indexed": true,
          "internalType": "address",
          "name": "from",
          "type": "address"
        },
        {
          "indexed": true,
          "internalType": "address",
          "name": "to",
          "type": "address"
        },
        {
          "indexed": false,
          "internalType": "uint256",
          "name": "id",
          "type": "uint256"
        },
        {
          "indexed": false,
          "internalType": "uint256",
          "name": "value",
          "type": "uint256"
        }
      ],
      "name": "TransferSingle",
      "type": "event"
    },
    {
      "anonymous": false,
      "inputs": [
        {
          "indexed": false,
          "internalType": "string",
          "name": "value",
          "type": "string"
        },
        {
          "indexed": true,
          "internalType": "uint256",
          "name": "id",
          "type": "uint256"
        }
      ],
      "name": "URI",
      "type": "event"
    },
    {
      "inputs": [
        {
          "internalType": "address",
          "name": "account",
          "type": "address"
        },
        {
          "internalType": "uint256",
          "name": "id",
          "type": "uint256"
        }
      ],
      "name": "balanceOf",
      "outputs": [
        {
          "internalType": "uint256",
          "name": "",
          "type": "uint256"
        }
      ],
      "stateMutability": "view",
      "type": "function"
    },
    {
      "inputs": [
        {
          "internalType": "address[]",
          "name": "accounts",
          "type": "address[]"
        },
        {
          "internalType": "uint256[]",
          "name": "ids",
          "type": "uint256[]"
        }
      ],
      "name": "balanceOfBatch",
      "outputs": [
        {
          "internalType": "uint256[]",
          "name": "",
          "type": "uint256[]"
        }
      ],
      "stateMutability": "view",
      "type": "function"
    },
    {
      "inputs": [],
      "name": "baseTokenUri",
      "outputs": [
        {
          "internalType": "string",
          "name": "",
          "type": "string"
        }
      ],
      "stateMutability": "view",
      "type": "function"
    },
    {
      "inputs": [
        {
          "internalType": "address",
          "name": "from",
          "type": "address"
        },
        {
          "internalType": "uint256",
          "name": "id",
          "type": "uint256"
        },
        {
          "internalType": "uint256",
          "name": "amount",
          "type": "uint256"
        },
        {
          "internalType": "bytes",
          "name": "data",
          "type": "bytes"
        }
      ],
      "name": "burn",
      "outputs": [],
      "stateMutability": "nonpayable",
      "type": "function"
    },
    {
      "inputs": [
        {
          "internalType": "bool",
          "name": "is_fungible",
          "type": "bool"
        },
        {
          "internalType": "bytes",
          "name": "data",
          "type": "bytes"
        }
      ],
      "name": "create",
      "outputs": [],
      "stateMutability": "nonpayable",
      "type": "function"
    },
    {
      "inputs": [
        {
          "internalType": "uint256",
          "name": "",
          "type": "uint256"
        }
      ],
      "name": "creators",
      "outputs": [
        {
          "internalType": "address",
          "name": "",
          "type": "address"
        }
      ],
      "stateMutability": "view",
      "type": "function"
    },
    {
      "inputs": [
        {
          "internalType": "address",
          "name": "account",
          "type": "address"
        },
        {
          "internalType": "address",
          "name": "operator",
          "type": "address"
        }
      ],
      "name": "isApprovedForAll",
      "outputs": [
        {
          "internalType": "bool",
          "name": "",
          "type": "bool"
        }
      ],
      "stateMutability": "view",
      "type": "function"
    },
    {
      "inputs": [
        {
          "internalType": "uint256",
          "name": "",
          "type": "uint256"
        }
      ],
      "name": "maxIndex",
      "outputs": [
        {
          "internalType": "uint256",
          "name": "",
          "type": "uint256"
        }
      ],
      "stateMutability": "view",
      "type": "function"
    },
    {
      "inputs": [
        {
          "internalType": "uint256",
          "name": "type_id",
          "type": "uint256"
        },
        {
          "internalType": "address[]",
          "name": "to",
          "type": "address[]"
        },
        {
          "internalType": "uint256[]",
          "name": "amounts",
          "type": "uint256[]"
        },
        {
          "internalType": "bytes",
          "name": "data",
          "type": "bytes"
        }
      ],
      "name": "mintFungible",
      "outputs": [],
      "stateMutability": "nonpayable",
      "type": "function"
    },
    {
      "inputs": [
        {
          "internalType": "uint256",
          "name": "type_id",
          "type": "uint256"
        },
        {
          "internalType": "address[]",
          "name": "to",
          "type": "address[]"
        },
        {
          "internalType": "bytes",
          "name": "data",
          "type": "bytes"
        }
      ],
      "name": "mintNonFungible",
      "outputs": [],
      "stateMutability": "nonpayable",
      "type": "function"
    },
    {
      "inputs": [
        {
          "internalType": "uint256",
          "name": "type_id",
          "type": "uint256"
        },
        {
          "internalType": "address[]",
          "name": "to",
          "type": "address[]"
        },
        {
          "internalType": "bytes",
          "name": "data",
          "type": "bytes"
        },
        {
          "internalType": "string",
          "name": "_uri",
          "type": "string"
        }
      ],
      "name": "mintNonFungibleWithURI",
      "outputs": [],
      "stateMutability": "nonpayable",
      "type": "function"
    },
    {
      "inputs": [
        {
          "internalType": "address",
          "name": "from",
          "type": "address"
        },
        {
          "internalType": "address",
          "name": "to",
          "type": "address"
        },
        {
          "internalType": "uint256[]",
          "name": "ids",
          "type": "uint256[]"
        },
        {
          "internalType": "uint256[]",
          "name": "amounts",
          "type": "uint256[]"
        },
        {
          "internalType": "bytes",
          "name": "data",
          "type": "bytes"
        }
      ],
      "name": "safeBatchTransferFrom",
      "outputs": [],
      "stateMutability": "nonpayable",
      "type": "function"
    },
    {
      "inputs": [
        {
          "internalType": "address",
          "name": "from",
          "type": "address"
        },
        {
          "internalType": "address",
          "name": "to",
          "type": "address"
        },
        {
          "internalType": "uint256",
          "name": "id",
          "type": "uint256"
        },
        {
          "internalType": "uint256",
          "name": "amount",
          "type": "uint256"
        },
        {
          "internalType": "bytes",
          "name": "data",
          "type": "bytes"
        }
      ],
      "name": "safeTransferFrom",
      "outputs": [],
      "stateMutability": "nonpayable",
      "type": "function"
    },
    {
      "inputs": [
        {
          "internalType": "address",
          "name": "operator",
          "type": "address"
        },
        {
          "internalType": "bool",
          "name": "approved",
          "type": "bool"
        }
      ],
      "name": "setApprovalForAll",
      "outputs": [],
      "stateMutability": "nonpayable",
      "type": "function"
    },
    {
      "inputs": [
        {
          "internalType": "address",
          "name": "operator",
          "type": "address"
        },
        {
          "internalType": "bool",
          "name": "approved",
          "type": "bool"
        },
        {
          "internalType": "bytes",
          "name": "data",
          "type": "bytes"
        }
      ],
      "name": "setApprovalForAllWithData",
      "outputs": [],
      "stateMutability": "nonpayable",
      "type": "function"
    },
    {
      "inputs": [
        {
          "internalType": "bytes4",
          "name": "interfaceId",
          "type": "bytes4"
        }
      ],
      "name": "supportsInterface",
      "outputs": [
        {
          "internalType": "bool",
          "name": "",
          "type": "bool"
        }
      ],
      "stateMutability": "view",
      "type": "function"
    },
    {
      "inputs": [
        {
          "internalType": "uint256",
          "name": "id",
          "type": "uint256"
        }
      ],
      "name": "uri",
      "outputs": [
        {
          "internalType": "string",
          "name": "",
          "type": "string"
        }
      ],
      "stateMutability": "view",
      "type": "function"
    }
  ],
  "bytecode": "0x60806040523480156200001157600080fd5b506040516200450b3803806200450b8339818101604052810190620000379190620001a8565b8062000049816200006a60201b60201c565b5080600690805190602001906200006292919062000086565b50506200035d565b80600290805190602001906200008292919062000086565b5050565b828054620000949062000282565b90600052602060002090601f016020900481019282620000b8576000855562000104565b82601f10620000d357805160ff191683800117855562000104565b8280016001018555821562000104579182015b8281111562000103578251825591602001919060010190620000e6565b5b50905062000113919062000117565b5090565b5b808211156200013257600081600090555060010162000118565b5090565b60006200014d620001478462000216565b620001ed565b9050828152602081018484840111156200016657600080fd5b620001738482856200024c565b509392505050565b600082601f8301126200018d57600080fd5b81516200019f84826020860162000136565b91505092915050565b600060208284031215620001bb57600080fd5b600082015167ffffffffffffffff811115620001d657600080fd5b620001e4848285016200017b565b91505092915050565b6000620001f96200020c565b9050620002078282620002b8565b919050565b6000604051905090565b600067ffffffffffffffff8211156200023457620002336200031d565b5b6200023f826200034c565b9050602081019050919050565b60005b838110156200026c5780820151818401526020810190506200024f565b838111156200027c576000848401525b50505050565b600060028204905060018216806200029b57607f821691505b60208210811415620002b257620002b1620002ee565b5b50919050565b620002c3826200034c565b810181811067ffffffffffffffff82111715620002e557620002e46200031d565b5b80604052505050565b7f4e487b7100000000000000000000000000000000000000000000000000000000600052602260045260246000fd5b7f4e487b7100000000000000000000000000000000000000000000000000000000600052604160045260246000fd5b6000601f19601f8301169050919050565b61419e806200036d6000396000f3fe608060405234801561001057600080fd5b506004361061010a5760003560e01c806354dbdbf4116100a25780638a94b05f116100715780638a94b05f146102c5578063a22cb465146102e1578063cd53d08e146102fd578063e985e9c51461032d578063f242432a1461035d5761010a565b806354dbdbf41461025357806371cc16561461026f5780637a0101a21461028b5780637e53b65d146102a95761010a565b8063183fb254116100de578063183fb254146101cf5780631cbf311d146101eb5780632eb2c2d6146102075780634e1273f4146102235761010a565b8062fdd58e1461010f57806301ffc9a71461013f57806308d7d4691461016f5780630e89341c1461019f575b600080fd5b61012960048036038101906101249190612b83565b610379565b60405161013691906136aa565b60405180910390f35b61015960048036038101906101549190612d03565b610442565b604051610166919061344d565b60405180910390f35b61018960048036038101906101849190612d55565b6104bc565b60405161019691906136aa565b60405180910390f35b6101b960048036038101906101b49190612d55565b6104d4565b6040516101c69190613468565b60405180910390f35b6101e960048036038101906101e49190612d7e565b610624565b005b61020560048036038101906102009190612b17565b61082d565b005b610221600480360381019061021c919061298d565b61083d565b005b61023d60048036038101906102389190612c3f565b6108de565b60405161024a91906133f4565b60405180910390f35b61026d60048036038101906102689190612e37565b610a8f565b005b61028960048036038101906102849190612cab565b610c79565b005b610293610db2565b6040516102a09190613468565b60405180910390f35b6102c360048036038101906102be9190612ec0565b610e44565b005b6102df60048036038101906102da9190612bbf565b611040565b005b6102fb60048036038101906102f69190612adb565b6110df565b005b61031760048036038101906103129190612d55565b6110f5565b6040516103249190613317565b60405180910390f35b61034760048036038101906103429190612951565b611128565b604051610354919061344d565b60405180910390f35b61037760048036038101906103729190612a4c565b6111bc565b005b60008073ffffffffffffffffffffffffffffffffffffffff168373ffffffffffffffffffffffffffffffffffffffff1614156103ea576040517f08c379a00000000000000000000000000000000000000000000000000000000081526004016103e1906134ca565b60405180910390fd5b60008083815260200190815260200160002060008473ffffffffffffffffffffffffffffffffffffffff1673ffffffffffffffffffffffffffffffffffffffff16815260200190815260200160002054905092915050565b60007fa1d87d57000000000000000000000000000000000000000000000000000000007bffffffffffffffffffffffffffffffffffffffffffffffffffffffff1916827bffffffffffffffffffffffffffffffffffffffffffffffffffffffff191614806104b557506104b48261125d565b5b9050919050565b60056020528060005260406000206000915090505481565b606060006007600084815260200190815260200160002080546104f6906139be565b80601f0160208091040260200160405190810160405280929190818152602001828054610522906139be565b801561056f5780601f106105445761010080835404028352916020019161056f565b820191906000526020600020905b81548152906001019060200180831161055257829003601f168201915b5050505050905060008190506000815114156106195760068054610592906139be565b80601f01602080910402602001604051908101604052809291908181526020018280546105be906139be565b801561060b5780601f106105e05761010080835404028352916020019161060b565b820191906000526020600020905b8154815290600101906020018083116105ee57829003601f168201915b50505050509250505061061f565b81925050505b919050565b8661062d61133f565b73ffffffffffffffffffffffffffffffffffffffff166004600083815260200190815260200160002060009054906101000a900473ffffffffffffffffffffffffffffffffffffffff1673ffffffffffffffffffffffffffffffffffffffff161461069757600080fd5b6106a088611347565b6106df576040517f08c379a00000000000000000000000000000000000000000000000000000000081526004016106d69061356a565b60405180910390fd5b848490508787905014610727576040517f08c379a000000000000000000000000000000000000000000000000000000000815260040161071e906135ca565b60405180910390fd5b60005b8787905081101561082257610811888883818110610771577f4e487b7100000000000000000000000000000000000000000000000000000000600052603260045260246000fd5b90506020020160208101906107869190612928565b8a8888858181106107c0577f4e487b7100000000000000000000000000000000000000000000000000000000600052603260045260246000fd5b9050602002013587878080601f016020809104026020016040519081016040528093929190818152602001838380828437600081840152601f19601f82011690508083019250505050505050611375565b8061081b90613a21565b905061072a565b505050505050505050565b61083784846110df565b50505050565b61084561133f565b73ffffffffffffffffffffffffffffffffffffffff168573ffffffffffffffffffffffffffffffffffffffff16148061088b575061088a8561088561133f565b611128565b5b6108ca576040517f08c379a00000000000000000000000000000000000000000000000000000000081526004016108c1906135aa565b60405180910390fd5b6108d78585858585611526565b5050505050565b60608151835114610924576040517f08c379a000000000000000000000000000000000000000000000000000000000815260040161091b9061364a565b60405180910390fd5b6000835167ffffffffffffffff811115610967577f4e487b7100000000000000000000000000000000000000000000000000000000600052604160045260246000fd5b6040519080825280602002602001820160405280156109955781602001602082028036833780820191505090505b50905060005b8451811015610a8457610a2e8582815181106109e0577f4e487b7100000000000000000000000000000000000000000000000000000000600052603260045260246000fd5b6020026020010151858381518110610a21577f4e487b7100000000000000000000000000000000000000000000000000000000600052603260045260246000fd5b6020026020010151610379565b828281518110610a67577f4e487b7100000000000000000000000000000000000000000000000000000000600052603260045260246000fd5b60200260200101818152505080610a7d90613a21565b905061099b565b508091505092915050565b84610a9861133f565b73ffffffffffffffffffffffffffffffffffffffff166004600083815260200190815260200160002060009054906101000a900473ffffffffffffffffffffffffffffffffffffffff1673ffffffffffffffffffffffffffffffffffffffff1614610b0257600080fd5b610b0b86611894565b610b4a576040517f08c379a0000000000000000000000000000000000000000000000000000000008152600401610b419061354a565b60405180910390fd5b600060016005600089815260200190815260200160002054610b6c919061387e565b9050610b8e86869050600560008a8152602001908152602001600020546118c2565b600560008981526020019081526020016000208190555060005b86869050811015610c6f57610c5e878783818110610bef577f4e487b7100000000000000000000000000000000000000000000000000000000600052603260045260246000fd5b9050602002016020810190610c049190612928565b8284610c10919061387e565b8a17600188888080601f016020809104026020016040519081016040528093929190818152602001838380828437600081840152601f19601f82011690508083019250505050505050611375565b80610c6890613a21565b9050610ba8565b5050505050505050565b60006080600360008154610c8c90613a21565b919050819055901b905083610cc1577f8000000000000000000000000000000000000000000000000000000000000000811790505b610cc961133f565b6004600083815260200190815260200160002060006101000a81548173ffffffffffffffffffffffffffffffffffffffff021916908373ffffffffffffffffffffffffffffffffffffffff160217905550831515610d2561133f565b73ffffffffffffffffffffffffffffffffffffffff167fd0748cc91b663bc13cd651f6a34070388ee003d0ff74a90667a27b822099dd988387610d9057600170010000000000000000000000000000000086610d81919061387e565b610d8b91906138d4565b610d92565b845b8787604051610da494939291906136ee565b60405180910390a350505050565b606060068054610dc1906139be565b80601f0160208091040260200160405190810160405280929190818152602001828054610ded906139be565b8015610e3a5780601f10610e0f57610100808354040283529160200191610e3a565b820191906000526020600020905b815481529060010190602001808311610e1d57829003601f168201915b5050505050905090565b85610e4d61133f565b73ffffffffffffffffffffffffffffffffffffffff166004600083815260200190815260200160002060009054906101000a900473ffffffffffffffffffffffffffffffffffffffff1673ffffffffffffffffffffffffffffffffffffffff1614610eb757600080fd5b610ec087611894565b610eff576040517f08c379a0000000000000000000000000000000000000000000000000000000008152600401610ef69061354a565b60405180910390fd5b60006001600560008a815260200190815260200160002054610f21919061387e565b9050610f4387879050600560008b8152602001908152602001600020546118c2565b600560008a81526020019081526020016000208190555060005b878790508110156110355760008183610f76919061387e565b8a179050611018898984818110610fb6577f4e487b7100000000000000000000000000000000000000000000000000000000600052603260045260246000fd5b9050602002016020810190610fcb9190612928565b8260018a8a8080601f016020809104026020016040519081016040528093929190818152602001838380828437600081840152601f19601f82011690508083019250505050505050611375565b6110238a82876118d8565b508061102e90613a21565b9050610f5d565b505050505050505050565b61104861133f565b73ffffffffffffffffffffffffffffffffffffffff168573ffffffffffffffffffffffffffffffffffffffff16148061108e575061108d8561108861133f565b611128565b5b6110cd576040517f08c379a00000000000000000000000000000000000000000000000000000000081526004016110c49061350a565b60405180910390fd5b6110d88585856119c1565b5050505050565b6110f16110ea61133f565b8383611c08565b5050565b60046020528060005260406000206000915054906101000a900473ffffffffffffffffffffffffffffffffffffffff1681565b6000600160008473ffffffffffffffffffffffffffffffffffffffff1673ffffffffffffffffffffffffffffffffffffffff16815260200190815260200160002060008373ffffffffffffffffffffffffffffffffffffffff1673ffffffffffffffffffffffffffffffffffffffff16815260200190815260200160002060009054906101000a900460ff16905092915050565b6111c461133f565b73ffffffffffffffffffffffffffffffffffffffff168573ffffffffffffffffffffffffffffffffffffffff16148061120a57506112098561120461133f565b611128565b5b611249576040517f08c379a00000000000000000000000000000000000000000000000000000000081526004016112409061352a565b60405180910390fd5b6112568585858585611d75565b5050505050565b60007fd9b67a26000000000000000000000000000000000000000000000000000000007bffffffffffffffffffffffffffffffffffffffffffffffffffffffff1916827bffffffffffffffffffffffffffffffffffffffffffffffffffffffff1916148061132857507f0e89341c000000000000000000000000000000000000000000000000000000007bffffffffffffffffffffffffffffffffffffffffffffffffffffffff1916827bffffffffffffffffffffffffffffffffffffffffffffffffffffffff1916145b80611338575061133782612011565b5b9050919050565b600033905090565b6000807f80000000000000000000000000000000000000000000000000000000000000008316149050919050565b600073ffffffffffffffffffffffffffffffffffffffff168473ffffffffffffffffffffffffffffffffffffffff1614156113e5576040517f08c379a00000000000000000000000000000000000000000000000000000000081526004016113dc9061368a565b60405180910390fd5b60006113ef61133f565b905060006113fc8561207b565b905060006114098561207b565b905061141a83600089858589612141565b8460008088815260200190815260200160002060008973ffffffffffffffffffffffffffffffffffffffff1673ffffffffffffffffffffffffffffffffffffffff1681526020019081526020016000206000828254611479919061387e565b925050819055508673ffffffffffffffffffffffffffffffffffffffff16600073ffffffffffffffffffffffffffffffffffffffff168473ffffffffffffffffffffffffffffffffffffffff167fc3d58168c5ae7397731d063d5bbf3d657854427343f4c083240f7aacaa2d0f6289896040516114f79291906136c5565b60405180910390a461150e83600089858589612149565b61151d83600089898989612151565b50505050505050565b815183511461156a576040517f08c379a00000000000000000000000000000000000000000000000000000000081526004016115619061366a565b60405180910390fd5b600073ffffffffffffffffffffffffffffffffffffffff168473ffffffffffffffffffffffffffffffffffffffff1614156115da576040517f08c379a00000000000000000000000000000000000000000000000000000000081526004016115d19061358a565b60405180910390fd5b60006115e461133f565b90506115f4818787878787612141565b60005b84518110156117f157600085828151811061163b577f4e487b7100000000000000000000000000000000000000000000000000000000600052603260045260246000fd5b602002602001015190506000858381518110611680577f4e487b7100000000000000000000000000000000000000000000000000000000600052603260045260246000fd5b60200260200101519050600080600084815260200190815260200160002060008b73ffffffffffffffffffffffffffffffffffffffff1673ffffffffffffffffffffffffffffffffffffffff16815260200190815260200160002054905081811015611721576040517f08c379a00000000000000000000000000000000000000000000000000000000081526004016117189061360a565b60405180910390fd5b81810360008085815260200190815260200160002060008c73ffffffffffffffffffffffffffffffffffffffff1673ffffffffffffffffffffffffffffffffffffffff168152602001908152602001600020819055508160008085815260200190815260200160002060008b73ffffffffffffffffffffffffffffffffffffffff1673ffffffffffffffffffffffffffffffffffffffff16815260200190815260200160002060008282546117d6919061387e565b92505081905550505050806117ea90613a21565b90506115f7565b508473ffffffffffffffffffffffffffffffffffffffff168673ffffffffffffffffffffffffffffffffffffffff168273ffffffffffffffffffffffffffffffffffffffff167f4a39dc06d4c0dbc64b70af90fd698a233a518aa5d07e595d983b8c0526c8f7fb8787604051611868929190613416565b60405180910390a461187e818787878787612149565b61188c818787878787612338565b505050505050565b60007f8000000000000000000000000000000000000000000000000000000000000000808316149050919050565b600081836118d0919061387e565b905092915050565b826118e161133f565b73ffffffffffffffffffffffffffffffffffffffff166004600083815260200190815260200160002060009054906101000a900473ffffffffffffffffffffffffffffffffffffffff1673ffffffffffffffffffffffffffffffffffffffff161461194b57600080fd5b61195484611894565b611993576040517f08c379a000000000000000000000000000000000000000000000000000000000815260040161198a9061354a565b60405180910390fd5b816007600085815260200190815260200160002090805190602001906119ba929190612542565b5050505050565b600073ffffffffffffffffffffffffffffffffffffffff168373ffffffffffffffffffffffffffffffffffffffff161415611a31576040517f08c379a0000000000000000000000000000000000000000000000000000000008152600401611a28906135ea565b60405180910390fd5b6000611a3b61133f565b90506000611a488461207b565b90506000611a558461207b565b9050611a7583876000858560405180602001604052806000815250612141565b600080600087815260200190815260200160002060008873ffffffffffffffffffffffffffffffffffffffff1673ffffffffffffffffffffffffffffffffffffffff16815260200190815260200160002054905084811015611b0c576040517f08c379a0000000000000000000000000000000000000000000000000000000008152600401611b03906134ea565b60405180910390fd5b84810360008088815260200190815260200160002060008973ffffffffffffffffffffffffffffffffffffffff1673ffffffffffffffffffffffffffffffffffffffff16815260200190815260200160002081905550600073ffffffffffffffffffffffffffffffffffffffff168773ffffffffffffffffffffffffffffffffffffffff168573ffffffffffffffffffffffffffffffffffffffff167fc3d58168c5ae7397731d063d5bbf3d657854427343f4c083240f7aacaa2d0f628989604051611bd99291906136c5565b60405180910390a4611bff84886000868660405180602001604052806000815250612149565b50505050505050565b8173ffffffffffffffffffffffffffffffffffffffff168373ffffffffffffffffffffffffffffffffffffffff161415611c77576040517f08c379a0000000000000000000000000000000000000000000000000000000008152600401611c6e9061362a565b60405180910390fd5b80600160008573ffffffffffffffffffffffffffffffffffffffff1673ffffffffffffffffffffffffffffffffffffffff16815260200190815260200160002060008473ffffffffffffffffffffffffffffffffffffffff1673ffffffffffffffffffffffffffffffffffffffff16815260200190815260200160002060006101000a81548160ff0219169083151502179055508173ffffffffffffffffffffffffffffffffffffffff168373ffffffffffffffffffffffffffffffffffffffff167f17307eab39ab6107e8899845ad3d59bd9653f200f220920489ca2b5937696c3183604051611d68919061344d565b60405180910390a3505050565b600073ffffffffffffffffffffffffffffffffffffffff168473ffffffffffffffffffffffffffffffffffffffff161415611de5576040517f08c379a0000000000000000000000000000000000000000000000000000000008152600401611ddc9061358a565b60405180910390fd5b6000611def61133f565b90506000611dfc8561207b565b90506000611e098561207b565b9050611e19838989858589612141565b600080600088815260200190815260200160002060008a73ffffffffffffffffffffffffffffffffffffffff1673ffffffffffffffffffffffffffffffffffffffff16815260200190815260200160002054905085811015611eb0576040517f08c379a0000000000000000000000000000000000000000000000000000000008152600401611ea79061360a565b60405180910390fd5b85810360008089815260200190815260200160002060008b73ffffffffffffffffffffffffffffffffffffffff1673ffffffffffffffffffffffffffffffffffffffff168152602001908152602001600020819055508560008089815260200190815260200160002060008a73ffffffffffffffffffffffffffffffffffffffff1673ffffffffffffffffffffffffffffffffffffffff1681526020019081526020016000206000828254611f65919061387e565b925050819055508773ffffffffffffffffffffffffffffffffffffffff168973ffffffffffffffffffffffffffffffffffffffff168573ffffffffffffffffffffffffffffffffffffffff167fc3d58168c5ae7397731d063d5bbf3d657854427343f4c083240f7aacaa2d0f628a8a604051611fe29291906136c5565b60405180910390a4611ff8848a8a86868a612149565b612006848a8a8a8a8a612151565b505050505050505050565b60007f01ffc9a7000000000000000000000000000000000000000000000000000000007bffffffffffffffffffffffffffffffffffffffffffffffffffffffff1916827bffffffffffffffffffffffffffffffffffffffffffffffffffffffff1916149050919050565b60606000600167ffffffffffffffff8111156120c0577f4e487b7100000000000000000000000000000000000000000000000000000000600052604160045260246000fd5b6040519080825280602002602001820160405280156120ee5781602001602082028036833780820191505090505b509050828160008151811061212c577f4e487b7100000000000000000000000000000000000000000000000000000000600052603260045260246000fd5b60200260200101818152505080915050919050565b505050505050565b505050505050565b6121708473ffffffffffffffffffffffffffffffffffffffff1661251f565b15612330578373ffffffffffffffffffffffffffffffffffffffff1663f23a6e6187878686866040518663ffffffff1660e01b81526004016121b695949392919061339a565b602060405180830381600087803b1580156121d057600080fd5b505af192505050801561220157506040513d601f19601f820116820180604052508101906121fe9190612d2c565b60015b6122a75761220d613af7565b806308c379a0141561226a5750612222614076565b8061222d575061226c565b806040517f08c379a00000000000000000000000000000000000000000000000000000000081526004016122619190613468565b60405180910390fd5b505b6040517f08c379a000000000000000000000000000000000000000000000000000000000815260040161229e9061348a565b60405180910390fd5b63f23a6e6160e01b7bffffffffffffffffffffffffffffffffffffffffffffffffffffffff1916817bffffffffffffffffffffffffffffffffffffffffffffffffffffffff19161461232e576040517f08c379a0000000000000000000000000000000000000000000000000000000008152600401612325906134aa565b60405180910390fd5b505b505050505050565b6123578473ffffffffffffffffffffffffffffffffffffffff1661251f565b15612517578373ffffffffffffffffffffffffffffffffffffffff1663bc197c8187878686866040518663ffffffff1660e01b815260040161239d959493929190613332565b602060405180830381600087803b1580156123b757600080fd5b505af19250505080156123e857506040513d601f19601f820116820180604052508101906123e59190612d2c565b60015b61248e576123f4613af7565b806308c379a014156124515750612409614076565b806124145750612453565b806040517f08c379a00000000000000000000000000000000000000000000000000000000081526004016124489190613468565b60405180910390fd5b505b6040517f08c379a00000000000000000000000000000000000000000000000000000000081526004016124859061348a565b60405180910390fd5b63bc197c8160e01b7bffffffffffffffffffffffffffffffffffffffffffffffffffffffff1916817bffffffffffffffffffffffffffffffffffffffffffffffffffffffff191614612515576040517f08c379a000000000000000000000000000000000000000000000000000000000815260040161250c906134aa565b60405180910390fd5b505b505050505050565b6000808273ffffffffffffffffffffffffffffffffffffffff163b119050919050565b82805461254e906139be565b90600052602060002090601f01602090048101928261257057600085556125b7565b82601f1061258957805160ff19168380011785556125b7565b828001600101855582156125b7579182015b828111156125b657825182559160200191906001019061259b565b5b5090506125c491906125c8565b5090565b5b808211156125e15760008160009055506001016125c9565b5090565b60006125f86125f384613753565b61372e565b9050808382526020820190508285602086028201111561261757600080fd5b60005b85811015612647578161262d8882612739565b84526020840193506020830192505060018101905061261a565b5050509392505050565b600061266461265f8461377f565b61372e565b9050808382526020820190508285602086028201111561268357600080fd5b60005b858110156126b357816126998882612913565b845260208401935060208301925050600181019050612686565b5050509392505050565b60006126d06126cb846137ab565b61372e565b9050828152602081018484840111156126e857600080fd5b6126f384828561397c565b509392505050565b600061270e612709846137dc565b61372e565b90508281526020810184848401111561272657600080fd5b61273184828561397c565b509392505050565b6000813590506127488161410c565b92915050565b60008083601f84011261276057600080fd5b8235905067ffffffffffffffff81111561277957600080fd5b60208301915083602082028301111561279157600080fd5b9250929050565b600082601f8301126127a957600080fd5b81356127b98482602086016125e5565b91505092915050565b60008083601f8401126127d457600080fd5b8235905067ffffffffffffffff8111156127ed57600080fd5b60208301915083602082028301111561280557600080fd5b9250929050565b600082601f83011261281d57600080fd5b813561282d848260208601612651565b91505092915050565b60008135905061284581614123565b92915050565b60008135905061285a8161413a565b92915050565b60008151905061286f8161413a565b92915050565b60008083601f84011261288757600080fd5b8235905067ffffffffffffffff8111156128a057600080fd5b6020830191508360018202830111156128b857600080fd5b9250929050565b600082601f8301126128d057600080fd5b81356128e08482602086016126bd565b91505092915050565b600082601f8301126128fa57600080fd5b813561290a8482602086016126fb565b91505092915050565b60008135905061292281614151565b92915050565b60006020828403121561293a57600080fd5b600061294884828501612739565b91505092915050565b6000806040838503121561296457600080fd5b600061297285828601612739565b925050602061298385828601612739565b9150509250929050565b600080600080600060a086880312156129a557600080fd5b60006129b388828901612739565b95505060206129c488828901612739565b945050604086013567ffffffffffffffff8111156129e157600080fd5b6129ed8882890161280c565b935050606086013567ffffffffffffffff811115612a0a57600080fd5b612a168882890161280c565b925050608086013567ffffffffffffffff811115612a3357600080fd5b612a3f888289016128bf565b9150509295509295909350565b600080600080600060a08688031215612a6457600080fd5b6000612a7288828901612739565b9550506020612a8388828901612739565b9450506040612a9488828901612913565b9350506060612aa588828901612913565b925050608086013567ffffffffffffffff811115612ac257600080fd5b612ace888289016128bf565b9150509295509295909350565b60008060408385031215612aee57600080fd5b6000612afc85828601612739565b9250506020612b0d85828601612836565b9150509250929050565b60008060008060608587031215612b2d57600080fd5b6000612b3b87828801612739565b9450506020612b4c87828801612836565b935050604085013567ffffffffffffffff811115612b6957600080fd5b612b7587828801612875565b925092505092959194509250565b60008060408385031215612b9657600080fd5b6000612ba485828601612739565b9250506020612bb585828601612913565b9150509250929050565b600080600080600060808688031215612bd757600080fd5b6000612be588828901612739565b9550506020612bf688828901612913565b9450506040612c0788828901612913565b935050606086013567ffffffffffffffff811115612c2457600080fd5b612c3088828901612875565b92509250509295509295909350565b60008060408385031215612c5257600080fd5b600083013567ffffffffffffffff811115612c6c57600080fd5b612c7885828601612798565b925050602083013567ffffffffffffffff811115612c9557600080fd5b612ca18582860161280c565b9150509250929050565b600080600060408486031215612cc057600080fd5b6000612cce86828701612836565b935050602084013567ffffffffffffffff811115612ceb57600080fd5b612cf786828701612875565b92509250509250925092565b600060208284031215612d1557600080fd5b6000612d238482850161284b565b91505092915050565b600060208284031215612d3e57600080fd5b6000612d4c84828501612860565b91505092915050565b600060208284031215612d6757600080fd5b6000612d7584828501612913565b91505092915050565b60008060008060008060006080888a031215612d9957600080fd5b6000612da78a828b01612913565b975050602088013567ffffffffffffffff811115612dc457600080fd5b612dd08a828b0161274e565b9650965050604088013567ffffffffffffffff811115612def57600080fd5b612dfb8a828b016127c2565b9450945050606088013567ffffffffffffffff811115612e1a57600080fd5b612e268a828b01612875565b925092505092959891949750929550565b600080600080600060608688031215612e4f57600080fd5b6000612e5d88828901612913565b955050602086013567ffffffffffffffff811115612e7a57600080fd5b612e868882890161274e565b9450945050604086013567ffffffffffffffff811115612ea557600080fd5b612eb188828901612875565b92509250509295509295909350565b60008060008060008060808789031215612ed957600080fd5b6000612ee789828a01612913565b965050602087013567ffffffffffffffff811115612f0457600080fd5b612f1089828a0161274e565b9550955050604087013567ffffffffffffffff811115612f2f57600080fd5b612f3b89828a01612875565b9350935050606087013567ffffffffffffffff811115612f5a57600080fd5b612f6689828a016128e9565b9150509295509295509295565b6000612f7f83836132f9565b60208301905092915050565b612f9481613908565b82525050565b6000612fa58261381d565b612faf818561384b565b9350612fba8361380d565b8060005b83811015612feb578151612fd28882612f73565b9750612fdd8361383e565b925050600181019050612fbe565b5085935050505092915050565b6130018161391a565b82525050565b6000613013838561385c565b935061302083858461397c565b61302983613b19565b840190509392505050565b600061303f82613828565b613049818561385c565b935061305981856020860161398b565b61306281613b19565b840191505092915050565b600061307882613833565b613082818561386d565b935061309281856020860161398b565b61309b81613b19565b840191505092915050565b60006130b360348361386d565b91506130be82613b37565b604082019050919050565b60006130d660288361386d565b91506130e182613b86565b604082019050919050565b60006130f9602b8361386d565b915061310482613bd5565b604082019050919050565b600061311c60248361386d565b915061312782613c24565b604082019050919050565b600061313f60368361386d565b915061314a82613c73565b604082019050919050565b600061316260298361386d565b915061316d82613cc2565b604082019050919050565b6000613185603f8361386d565b915061319082613d11565b604082019050919050565b60006131a8603b8361386d565b91506131b382613d60565b604082019050919050565b60006131cb60258361386d565b91506131d682613daf565b604082019050919050565b60006131ee60328361386d565b91506131f982613dfe565b604082019050919050565b600061321160348361386d565b915061321c82613e4d565b604082019050919050565b600061323460238361386d565b915061323f82613e9c565b604082019050919050565b6000613257602a8361386d565b915061326282613eeb565b604082019050919050565b600061327a60298361386d565b915061328582613f3a565b604082019050919050565b600061329d60298361386d565b91506132a882613f89565b604082019050919050565b60006132c060288361386d565b91506132cb82613fd8565b604082019050919050565b60006132e360218361386d565b91506132ee82614027565b604082019050919050565b61330281613972565b82525050565b61331181613972565b82525050565b600060208201905061332c6000830184612f8b565b92915050565b600060a0820190506133476000830188612f8b565b6133546020830187612f8b565b81810360408301526133668186612f9a565b9050818103606083015261337a8185612f9a565b9050818103608083015261338e8184613034565b90509695505050505050565b600060a0820190506133af6000830188612f8b565b6133bc6020830187612f8b565b6133c96040830186613308565b6133d66060830185613308565b81810360808301526133e88184613034565b90509695505050505050565b6000602082019050818103600083015261340e8184612f9a565b905092915050565b600060408201905081810360008301526134308185612f9a565b905081810360208301526134448184612f9a565b90509392505050565b60006020820190506134626000830184612ff8565b92915050565b60006020820190508181036000830152613482818461306d565b905092915050565b600060208201905081810360008301526134a3816130a6565b9050919050565b600060208201905081810360008301526134c3816130c9565b9050919050565b600060208201905081810360008301526134e3816130ec565b9050919050565b600060208201905081810360008301526135038161310f565b9050919050565b6000602082019050818103600083015261352381613132565b9050919050565b6000602082019050818103600083015261354381613155565b9050919050565b6000602082019050818103600083015261356381613178565b9050919050565b600060208201905081810360008301526135838161319b565b9050919050565b600060208201905081810360008301526135a3816131be565b9050919050565b600060208201905081810360008301526135c3816131e1565b9050919050565b600060208201905081810360008301526135e381613204565b9050919050565b6000602082019050818103600083015261360381613227565b9050919050565b600060208201905081810360008301526136238161324a565b9050919050565b600060208201905081810360008301526136438161326d565b9050919050565b6000602082019050818103600083015261366381613290565b9050919050565b60006020820190508181036000830152613683816132b3565b9050919050565b600060208201905081810360008301526136a3816132d6565b9050919050565b60006020820190506136bf6000830184613308565b92915050565b60006040820190506136da6000830185613308565b6136e76020830184613308565b9392505050565b60006060820190506137036000830187613308565b6137106020830186613308565b8181036040830152613723818486613007565b905095945050505050565b6000613738613749565b905061374482826139f0565b919050565b6000604051905090565b600067ffffffffffffffff82111561376e5761376d613ac8565b5b602082029050602081019050919050565b600067ffffffffffffffff82111561379a57613799613ac8565b5b602082029050602081019050919050565b600067ffffffffffffffff8211156137c6576137c5613ac8565b5b6137cf82613b19565b9050602081019050919050565b600067ffffffffffffffff8211156137f7576137f6613ac8565b5b61380082613b19565b9050602081019050919050565b6000819050602082019050919050565b600081519050919050565b600081519050919050565b600081519050919050565b6000602082019050919050565b600082825260208201905092915050565b600082825260208201905092915050565b600082825260208201905092915050565b600061388982613972565b915061389483613972565b9250827fffffffffffffffffffffffffffffffffffffffffffffffffffffffffffffffff038211156138c9576138c8613a6a565b5b828201905092915050565b60006138df82613972565b91506138ea83613972565b9250828210156138fd576138fc613a6a565b5b828203905092915050565b600061391382613952565b9050919050565b60008115159050919050565b60007fffffffff0000000000000000000000000000000000000000000000000000000082169050919050565b600073ffffffffffffffffffffffffffffffffffffffff82169050919050565b6000819050919050565b82818337600083830152505050565b60005b838110156139a957808201518184015260208101905061398e565b838111156139b8576000848401525b50505050565b600060028204905060018216806139d657607f821691505b602082108114156139ea576139e9613a99565b5b50919050565b6139f982613b19565b810181811067ffffffffffffffff82111715613a1857613a17613ac8565b5b80604052505050565b6000613a2c82613972565b91507fffffffffffffffffffffffffffffffffffffffffffffffffffffffffffffffff821415613a5f57613a5e613a6a565b5b600182019050919050565b7f4e487b7100000000000000000000000000000000000000000000000000000000600052601160045260246000fd5b7f4e487b7100000000000000000000000000000000000000000000000000000000600052602260045260246000fd5b7f4e487b7100000000000000000000000000000000000000000000000000000000600052604160045260246000fd5b600060033d1115613b165760046000803e613b13600051613b2a565b90505b90565b6000601f19601f8301169050919050565b60008160e01c9050919050565b7f455243313135353a207472616e7366657220746f206e6f6e204552433131353560008201527f526563656976657220696d706c656d656e746572000000000000000000000000602082015250565b7f455243313135353a204552433131353552656365697665722072656a6563746560008201527f6420746f6b656e73000000000000000000000000000000000000000000000000602082015250565b7f455243313135353a2062616c616e636520717565727920666f7220746865207a60008201527f65726f2061646472657373000000000000000000000000000000000000000000602082015250565b7f455243313135353a206275726e20616d6f756e7420657863656564732062616c60008201527f616e636500000000000000000000000000000000000000000000000000000000602082015250565b7f455243313135354d6978656446756e6769626c653a2063616c6c65722069732060008201527f6e6f74206f776e6572206e6f7220617070726f76656400000000000000000000602082015250565b7f455243313135353a2063616c6c6572206973206e6f74206f776e6572206e6f7260008201527f20617070726f7665640000000000000000000000000000000000000000000000602082015250565b7f455243313135354d6978656446756e6769626c653a20696420646f6573206e6f60008201527f7420726570726573656e742061206e6f6e2d66756e6769626c65207479706500602082015250565b7f455243313135354d6978656446756e6769626c653a20696420646f6573206e6f60008201527f7420726570726573656e7420612066756e6769626c6520747970650000000000602082015250565b7f455243313135353a207472616e7366657220746f20746865207a65726f20616460008201527f6472657373000000000000000000000000000000000000000000000000000000602082015250565b7f455243313135353a207472616e736665722063616c6c6572206973206e6f742060008201527f6f776e6572206e6f7220617070726f7665640000000000000000000000000000602082015250565b7f455243313135354d6978656446756e6769626c653a20746f20616e6420616d6f60008201527f756e7473206c656e677468206d69736d61746368000000000000000000000000602082015250565b7f455243313135353a206275726e2066726f6d20746865207a65726f206164647260008201527f6573730000000000000000000000000000000000000000000000000000000000602082015250565b7f455243313135353a20696e73756666696369656e742062616c616e636520666f60008201527f72207472616e7366657200000000000000000000000000000000000000000000602082015250565b7f455243313135353a2073657474696e6720617070726f76616c2073746174757360008201527f20666f722073656c660000000000000000000000000000000000000000000000602082015250565b7f455243313135353a206163636f756e747320616e6420696473206c656e67746860008201527f206d69736d617463680000000000000000000000000000000000000000000000602082015250565b7f455243313135353a2069647320616e6420616d6f756e7473206c656e6774682060008201527f6d69736d61746368000000000000000000000000000000000000000000000000602082015250565b7f455243313135353a206d696e7420746f20746865207a65726f2061646472657360008201527f7300000000000000000000000000000000000000000000000000000000000000602082015250565b600060443d101561408657614109565b61408e613749565b60043d036004823e80513d602482011167ffffffffffffffff821117156140b6575050614109565b808201805167ffffffffffffffff8111156140d45750505050614109565b80602083010160043d0385018111156140f1575050505050614109565b614100826020018501866139f0565b82955050505050505b90565b61411581613908565b811461412057600080fd5b50565b61412c8161391a565b811461413757600080fd5b50565b61414381613926565b811461414e57600080fd5b50565b61415a81613972565b811461416557600080fd5b5056fea2646970667358221220fce8174728c283762219478dabb7edaeac24b4cd08a28a0c3a22f454fadf0bb864736f6c63430008040033",
  "linkReferences": {},
  "deployedLinkReferences": {}
}