{
  "_format": "hh-sol-artifact-1",
  "contractName": "ERC1155MixedFungible",
  "sourceName": "contracts/ERC1155MixedFungible.sol",
  "abi": [
    {
      "inputs": [
        {
          "internalType": "string",
          "name": "uri",
          "type": "string"
        }
      ],
      "stateMutability": "nonpayable",
      "type": "constructor"
    },
    {
      "anonymous": false,
      "inputs": [
        {
          "indexed": true,
          "internalType": "address",
          "name": "account",
          "type": "address"
        },
        {
          "indexed": true,
          "internalType": "address",
          "name": "operator",
          "type": "address"
        },
        {
          "indexed": false,
          "internalType": "bool",
          "name": "approved",
          "type": "bool"
        }
      ],
      "name": "ApprovalForAll",
      "type": "event"
    },
    {
      "anonymous": false,
      "inputs": [
        {
          "indexed": true,
          "internalType": "address",
          "name": "operator",
          "type": "address"
        },
        {
          "indexed": true,
          "internalType": "uint256",
          "name": "type_id",
          "type": "uint256"
        },
        {
          "indexed": false,
          "internalType": "bytes",
          "name": "data",
          "type": "bytes"
        }
      ],
      "name": "TokenPoolCreation",
      "type": "event"
    },
    {
      "anonymous": false,
      "inputs": [
        {
          "indexed": true,
          "internalType": "address",
          "name": "operator",
          "type": "address"
        },
        {
          "indexed": true,
          "internalType": "address",
          "name": "from",
          "type": "address"
        },
        {
          "indexed": true,
          "internalType": "address",
          "name": "to",
          "type": "address"
        },
        {
          "indexed": false,
          "internalType": "uint256[]",
          "name": "ids",
          "type": "uint256[]"
        },
        {
          "indexed": false,
          "internalType": "uint256[]",
          "name": "values",
          "type": "uint256[]"
        }
      ],
      "name": "TransferBatch",
      "type": "event"
    },
    {
      "anonymous": false,
      "inputs": [
        {
          "indexed": true,
          "internalType": "address",
          "name": "operator",
          "type": "address"
        },
        {
          "indexed": true,
          "internalType": "address",
          "name": "from",
          "type": "address"
        },
        {
          "indexed": true,
          "internalType": "address",
          "name": "to",
          "type": "address"
        },
        {
          "indexed": false,
          "internalType": "uint256",
          "name": "id",
          "type": "uint256"
        },
        {
          "indexed": false,
          "internalType": "uint256",
          "name": "value",
          "type": "uint256"
        }
      ],
      "name": "TransferSingle",
      "type": "event"
    },
    {
      "anonymous": false,
      "inputs": [
        {
          "indexed": false,
          "internalType": "string",
          "name": "value",
          "type": "string"
        },
        {
          "indexed": true,
          "internalType": "uint256",
          "name": "id",
          "type": "uint256"
        }
      ],
      "name": "URI",
      "type": "event"
    },
    {
      "inputs": [
        {
          "internalType": "address",
          "name": "account",
          "type": "address"
        },
        {
          "internalType": "uint256",
          "name": "id",
          "type": "uint256"
        }
      ],
      "name": "balanceOf",
      "outputs": [
        {
          "internalType": "uint256",
          "name": "",
          "type": "uint256"
        }
      ],
      "stateMutability": "view",
      "type": "function"
    },
    {
      "inputs": [
        {
          "internalType": "address[]",
          "name": "accounts",
          "type": "address[]"
        },
        {
          "internalType": "uint256[]",
          "name": "ids",
          "type": "uint256[]"
        }
      ],
      "name": "balanceOfBatch",
      "outputs": [
        {
          "internalType": "uint256[]",
          "name": "",
          "type": "uint256[]"
        }
      ],
      "stateMutability": "view",
      "type": "function"
    },
    {
      "inputs": [
        {
          "internalType": "address",
          "name": "from",
          "type": "address"
        },
        {
          "internalType": "uint256",
          "name": "id",
          "type": "uint256"
        },
        {
          "internalType": "uint256",
          "name": "amount",
          "type": "uint256"
        },
        {
          "internalType": "bytes",
          "name": "data",
          "type": "bytes"
        }
      ],
      "name": "burn",
      "outputs": [],
      "stateMutability": "nonpayable",
      "type": "function"
    },
    {
      "inputs": [
        {
          "internalType": "bool",
          "name": "is_fungible",
          "type": "bool"
        },
        {
          "internalType": "bytes",
          "name": "data",
          "type": "bytes"
        }
      ],
      "name": "create",
      "outputs": [
        {
          "internalType": "uint256",
          "name": "type_id",
          "type": "uint256"
        }
      ],
      "stateMutability": "nonpayable",
      "type": "function"
    },
    {
      "inputs": [
        {
          "internalType": "uint256",
          "name": "",
          "type": "uint256"
        }
      ],
      "name": "creators",
      "outputs": [
        {
          "internalType": "address",
          "name": "",
          "type": "address"
        }
      ],
      "stateMutability": "view",
      "type": "function"
    },
    {
      "inputs": [
        {
          "internalType": "address",
          "name": "account",
          "type": "address"
        },
        {
          "internalType": "address",
          "name": "operator",
          "type": "address"
        }
      ],
      "name": "isApprovedForAll",
      "outputs": [
        {
          "internalType": "bool",
          "name": "",
          "type": "bool"
        }
      ],
      "stateMutability": "view",
      "type": "function"
    },
    {
      "inputs": [
        {
          "internalType": "uint256",
          "name": "",
          "type": "uint256"
        }
      ],
      "name": "maxIndex",
      "outputs": [
        {
          "internalType": "uint256",
          "name": "",
          "type": "uint256"
        }
      ],
      "stateMutability": "view",
      "type": "function"
    },
    {
      "inputs": [
        {
          "internalType": "uint256",
          "name": "type_id",
          "type": "uint256"
        },
        {
          "internalType": "address[]",
          "name": "to",
          "type": "address[]"
        },
        {
          "internalType": "uint256[]",
          "name": "amounts",
          "type": "uint256[]"
        },
        {
          "internalType": "bytes",
          "name": "data",
          "type": "bytes"
        }
      ],
      "name": "mintFungible",
      "outputs": [],
      "stateMutability": "nonpayable",
      "type": "function"
    },
    {
      "inputs": [
        {
          "internalType": "uint256",
          "name": "type_id",
          "type": "uint256"
        },
        {
          "internalType": "address[]",
          "name": "to",
          "type": "address[]"
        },
        {
          "internalType": "bytes",
          "name": "data",
          "type": "bytes"
        }
      ],
      "name": "mintNonFungible",
      "outputs": [],
      "stateMutability": "nonpayable",
      "type": "function"
    },
    {
      "inputs": [
        {
          "internalType": "address",
          "name": "from",
          "type": "address"
        },
        {
          "internalType": "address",
          "name": "to",
          "type": "address"
        },
        {
          "internalType": "uint256[]",
          "name": "ids",
          "type": "uint256[]"
        },
        {
          "internalType": "uint256[]",
          "name": "amounts",
          "type": "uint256[]"
        },
        {
          "internalType": "bytes",
          "name": "data",
          "type": "bytes"
        }
      ],
      "name": "safeBatchTransferFrom",
      "outputs": [],
      "stateMutability": "nonpayable",
      "type": "function"
    },
    {
      "inputs": [
        {
          "internalType": "address",
          "name": "from",
          "type": "address"
        },
        {
          "internalType": "address",
          "name": "to",
          "type": "address"
        },
        {
          "internalType": "uint256",
          "name": "id",
          "type": "uint256"
        },
        {
          "internalType": "uint256",
          "name": "amount",
          "type": "uint256"
        },
        {
          "internalType": "bytes",
          "name": "data",
          "type": "bytes"
        }
      ],
      "name": "safeTransferFrom",
      "outputs": [],
      "stateMutability": "nonpayable",
      "type": "function"
    },
    {
      "inputs": [
        {
          "internalType": "address",
          "name": "operator",
          "type": "address"
        },
        {
          "internalType": "bool",
          "name": "approved",
          "type": "bool"
        }
      ],
      "name": "setApprovalForAll",
      "outputs": [],
      "stateMutability": "nonpayable",
      "type": "function"
    },
    {
      "inputs": [
        {
          "internalType": "address",
          "name": "operator",
          "type": "address"
        },
        {
          "internalType": "bool",
          "name": "approved",
          "type": "bool"
        },
        {
          "internalType": "bytes",
          "name": "data",
          "type": "bytes"
        }
      ],
      "name": "setApprovalForAllWithData",
      "outputs": [],
      "stateMutability": "nonpayable",
      "type": "function"
    },
    {
      "inputs": [
        {
          "internalType": "bytes4",
          "name": "interfaceId",
          "type": "bytes4"
        }
      ],
      "name": "supportsInterface",
      "outputs": [
        {
          "internalType": "bool",
          "name": "",
          "type": "bool"
        }
      ],
      "stateMutability": "view",
      "type": "function"
    },
    {
      "inputs": [
        {
          "internalType": "uint256",
          "name": "",
          "type": "uint256"
        }
      ],
      "name": "uri",
      "outputs": [
        {
          "internalType": "string",
          "name": "",
          "type": "string"
        }
      ],
      "stateMutability": "view",
      "type": "function"
    }
  ],
  "bytecode": "0x60806040523480156200001157600080fd5b5060405162003d9138038062003d9183398181016040528101906200003791906200018f565b8062000049816200005160201b60201c565b505062000344565b8060029080519060200190620000699291906200006d565b5050565b8280546200007b9062000269565b90600052602060002090601f0160209004810192826200009f5760008555620000eb565b82601f10620000ba57805160ff1916838001178555620000eb565b82800160010185558215620000eb579182015b82811115620000ea578251825591602001919060010190620000cd565b5b509050620000fa9190620000fe565b5090565b5b8082111562000119576000816000905550600101620000ff565b5090565b6000620001346200012e84620001fd565b620001d4565b9050828152602081018484840111156200014d57600080fd5b6200015a84828562000233565b509392505050565b600082601f8301126200017457600080fd5b8151620001868482602086016200011d565b91505092915050565b600060208284031215620001a257600080fd5b600082015167ffffffffffffffff811115620001bd57600080fd5b620001cb8482850162000162565b91505092915050565b6000620001e0620001f3565b9050620001ee82826200029f565b919050565b6000604051905090565b600067ffffffffffffffff8211156200021b576200021a62000304565b5b620002268262000333565b9050602081019050919050565b60005b838110156200025357808201518184015260208101905062000236565b8381111562000263576000848401525b50505050565b600060028204905060018216806200028257607f821691505b60208210811415620002995762000298620002d5565b5b50919050565b620002aa8262000333565b810181811067ffffffffffffffff82111715620002cc57620002cb62000304565b5b80604052505050565b7f4e487b7100000000000000000000000000000000000000000000000000000000600052602260045260246000fd5b7f4e487b7100000000000000000000000000000000000000000000000000000000600052604160045260246000fd5b6000601f19601f8301169050919050565b613a3d80620003546000396000f3fe608060405234801561001057600080fd5b50600436106100f45760003560e01c80634e1273f411610097578063a22cb46511610066578063a22cb465146102a5578063cd53d08e146102c1578063e985e9c5146102f1578063f242432a14610321576100f4565b80634e1273f41461020d57806354dbdbf41461023d57806371cc1656146102595780638a94b05f14610289576100f4565b80630e89341c116100d35780630e89341c14610189578063183fb254146101b95780631cbf311d146101d55780632eb2c2d6146101f1576100f4565b8062fdd58e146100f957806301ffc9a71461012957806308d7d46914610159575b600080fd5b610113600480360381019061010e9190612556565b61033d565b6040516101209190612fee565b60405180910390f35b610143600480360381019061013e91906126d6565b610406565b6040516101509190612d6d565b60405180910390f35b610173600480360381019061016e9190612728565b6104e8565b6040516101809190612fee565b60405180910390f35b6101a3600480360381019061019e9190612728565b610500565b6040516101b09190612dac565b60405180910390f35b6101d360048036038101906101ce9190612751565b610594565b005b6101ef60048036038101906101ea91906124ea565b61079d565b005b61020b60048036038101906102069190612360565b6107ad565b005b61022760048036038101906102229190612612565b61084e565b6040516102349190612d14565b60405180910390f35b6102576004803603810190610252919061280a565b6109ff565b005b610273600480360381019061026e919061267e565b610be9565b6040516102809190612fee565b60405180910390f35b6102a3600480360381019061029e9190612592565b610ce9565b005b6102bf60048036038101906102ba91906124ae565b610d88565b005b6102db60048036038101906102d69190612728565b610d9e565b6040516102e89190612c37565b60405180910390f35b61030b60048036038101906103069190612324565b610dd1565b6040516103189190612d6d565b60405180910390f35b61033b6004803603810190610336919061241f565b610e65565b005b60008073ffffffffffffffffffffffffffffffffffffffff168373ffffffffffffffffffffffffffffffffffffffff1614156103ae576040517f08c379a00000000000000000000000000000000000000000000000000000000081526004016103a590612e0e565b60405180910390fd5b60008083815260200190815260200160002060008473ffffffffffffffffffffffffffffffffffffffff1673ffffffffffffffffffffffffffffffffffffffff16815260200190815260200160002054905092915050565b60007fd9b67a26000000000000000000000000000000000000000000000000000000007bffffffffffffffffffffffffffffffffffffffffffffffffffffffff1916827bffffffffffffffffffffffffffffffffffffffffffffffffffffffff191614806104d157507f0e89341c000000000000000000000000000000000000000000000000000000007bffffffffffffffffffffffffffffffffffffffffffffffffffffffff1916827bffffffffffffffffffffffffffffffffffffffffffffffffffffffff1916145b806104e157506104e082610f06565b5b9050919050565b60056020528060005260406000206000915090505481565b60606002805461050f9061325d565b80601f016020809104026020016040519081016040528092919081815260200182805461053b9061325d565b80156105885780601f1061055d57610100808354040283529160200191610588565b820191906000526020600020905b81548152906001019060200180831161056b57829003601f168201915b50505050509050919050565b8661059d610f70565b73ffffffffffffffffffffffffffffffffffffffff166004600083815260200190815260200160002060009054906101000a900473ffffffffffffffffffffffffffffffffffffffff1673ffffffffffffffffffffffffffffffffffffffff161461060757600080fd5b61061088610f78565b61064f576040517f08c379a000000000000000000000000000000000000000000000000000000000815260040161064690612eae565b60405180910390fd5b848490508787905014610697576040517f08c379a000000000000000000000000000000000000000000000000000000000815260040161068e90612f0e565b60405180910390fd5b60005b87879050811015610792576107818888838181106106e1577f4e487b7100000000000000000000000000000000000000000000000000000000600052603260045260246000fd5b90506020020160208101906106f691906122fb565b8a888885818110610730577f4e487b7100000000000000000000000000000000000000000000000000000000600052603260045260246000fd5b9050602002013587878080601f016020809104026020016040519081016040528093929190818152602001838380828437600081840152601f19601f82011690508083019250505050505050610fa6565b8061078b906132c0565b905061069a565b505050505050505050565b6107a78484610d88565b50505050565b6107b5610f70565b73ffffffffffffffffffffffffffffffffffffffff168573ffffffffffffffffffffffffffffffffffffffff1614806107fb57506107fa856107f5610f70565b610dd1565b5b61083a576040517f08c379a000000000000000000000000000000000000000000000000000000000815260040161083190612eee565b60405180910390fd5b6108478585858585611157565b5050505050565b60608151835114610894576040517f08c379a000000000000000000000000000000000000000000000000000000000815260040161088b90612f8e565b60405180910390fd5b6000835167ffffffffffffffff8111156108d7577f4e487b7100000000000000000000000000000000000000000000000000000000600052604160045260246000fd5b6040519080825280602002602001820160405280156109055781602001602082028036833780820191505090505b50905060005b84518110156109f45761099e858281518110610950577f4e487b7100000000000000000000000000000000000000000000000000000000600052603260045260246000fd5b6020026020010151858381518110610991577f4e487b7100000000000000000000000000000000000000000000000000000000600052603260045260246000fd5b602002602001015161033d565b8282815181106109d7577f4e487b7100000000000000000000000000000000000000000000000000000000600052603260045260246000fd5b602002602001018181525050806109ed906132c0565b905061090b565b508091505092915050565b84610a08610f70565b73ffffffffffffffffffffffffffffffffffffffff166004600083815260200190815260200160002060009054906101000a900473ffffffffffffffffffffffffffffffffffffffff1673ffffffffffffffffffffffffffffffffffffffff1614610a7257600080fd5b610a7b866114c5565b610aba576040517f08c379a0000000000000000000000000000000000000000000000000000000008152600401610ab190612e8e565b60405180910390fd5b600060016005600089815260200190815260200160002054610adc9190613151565b9050610afe86869050600560008a8152602001908152602001600020546114f3565b600560008981526020019081526020016000208190555060005b86869050811015610bdf57610bce878783818110610b5f577f4e487b7100000000000000000000000000000000000000000000000000000000600052603260045260246000fd5b9050602002016020810190610b7491906122fb565b8284610b809190613151565b8a17600188888080601f016020809104026020016040519081016040528093929190818152602001838380828437600081840152601f19601f82011690508083019250505050505050610fa6565b80610bd8906132c0565b9050610b18565b5050505050505050565b60006080600360008154610bfc906132c0565b919050819055901b905083610c31577f8000000000000000000000000000000000000000000000000000000000000000811790505b610c39610f70565b6004600083815260200190815260200160002060006101000a81548173ffffffffffffffffffffffffffffffffffffffff021916908373ffffffffffffffffffffffffffffffffffffffff16021790555080610c93610f70565b73ffffffffffffffffffffffffffffffffffffffff167f0d2ce24070e07853454690ae0a0416ddd4845188f8dbfe0ef3a761acb3d2e34e8585604051610cda929190612d88565b60405180910390a39392505050565b610cf1610f70565b73ffffffffffffffffffffffffffffffffffffffff168573ffffffffffffffffffffffffffffffffffffffff161480610d375750610d3685610d31610f70565b610dd1565b5b610d76576040517f08c379a0000000000000000000000000000000000000000000000000000000008152600401610d6d90612e4e565b60405180910390fd5b610d81858585611509565b5050505050565b610d9a610d93610f70565b8383611750565b5050565b60046020528060005260406000206000915054906101000a900473ffffffffffffffffffffffffffffffffffffffff1681565b6000600160008473ffffffffffffffffffffffffffffffffffffffff1673ffffffffffffffffffffffffffffffffffffffff16815260200190815260200160002060008373ffffffffffffffffffffffffffffffffffffffff1673ffffffffffffffffffffffffffffffffffffffff16815260200190815260200160002060009054906101000a900460ff16905092915050565b610e6d610f70565b73ffffffffffffffffffffffffffffffffffffffff168573ffffffffffffffffffffffffffffffffffffffff161480610eb35750610eb285610ead610f70565b610dd1565b5b610ef2576040517f08c379a0000000000000000000000000000000000000000000000000000000008152600401610ee990612e6e565b60405180910390fd5b610eff85858585856118bd565b5050505050565b60007f01ffc9a7000000000000000000000000000000000000000000000000000000007bffffffffffffffffffffffffffffffffffffffffffffffffffffffff1916827bffffffffffffffffffffffffffffffffffffffffffffffffffffffff1916149050919050565b600033905090565b6000807f80000000000000000000000000000000000000000000000000000000000000008316149050919050565b600073ffffffffffffffffffffffffffffffffffffffff168473ffffffffffffffffffffffffffffffffffffffff161415611016576040517f08c379a000000000000000000000000000000000000000000000000000000000815260040161100d90612fce565b60405180910390fd5b6000611020610f70565b9050600061102d85611b59565b9050600061103a85611b59565b905061104b83600089858589611c1f565b8460008088815260200190815260200160002060008973ffffffffffffffffffffffffffffffffffffffff1673ffffffffffffffffffffffffffffffffffffffff16815260200190815260200160002060008282546110aa9190613151565b925050819055508673ffffffffffffffffffffffffffffffffffffffff16600073ffffffffffffffffffffffffffffffffffffffff168473ffffffffffffffffffffffffffffffffffffffff167fc3d58168c5ae7397731d063d5bbf3d657854427343f4c083240f7aacaa2d0f628989604051611128929190613009565b60405180910390a461113f83600089858589611c27565b61114e83600089898989611c2f565b50505050505050565b815183511461119b576040517f08c379a000000000000000000000000000000000000000000000000000000000815260040161119290612fae565b60405180910390fd5b600073ffffffffffffffffffffffffffffffffffffffff168473ffffffffffffffffffffffffffffffffffffffff16141561120b576040517f08c379a000000000000000000000000000000000000000000000000000000000815260040161120290612ece565b60405180910390fd5b6000611215610f70565b9050611225818787878787611c1f565b60005b845181101561142257600085828151811061126c577f4e487b7100000000000000000000000000000000000000000000000000000000600052603260045260246000fd5b6020026020010151905060008583815181106112b1577f4e487b7100000000000000000000000000000000000000000000000000000000600052603260045260246000fd5b60200260200101519050600080600084815260200190815260200160002060008b73ffffffffffffffffffffffffffffffffffffffff1673ffffffffffffffffffffffffffffffffffffffff16815260200190815260200160002054905081811015611352576040517f08c379a000000000000000000000000000000000000000000000000000000000815260040161134990612f4e565b60405180910390fd5b81810360008085815260200190815260200160002060008c73ffffffffffffffffffffffffffffffffffffffff1673ffffffffffffffffffffffffffffffffffffffff168152602001908152602001600020819055508160008085815260200190815260200160002060008b73ffffffffffffffffffffffffffffffffffffffff1673ffffffffffffffffffffffffffffffffffffffff16815260200190815260200160002060008282546114079190613151565b925050819055505050508061141b906132c0565b9050611228565b508473ffffffffffffffffffffffffffffffffffffffff168673ffffffffffffffffffffffffffffffffffffffff168273ffffffffffffffffffffffffffffffffffffffff167f4a39dc06d4c0dbc64b70af90fd698a233a518aa5d07e595d983b8c0526c8f7fb8787604051611499929190612d36565b60405180910390a46114af818787878787611c27565b6114bd818787878787611e16565b505050505050565b60007f8000000000000000000000000000000000000000000000000000000000000000808316149050919050565b600081836115019190613151565b905092915050565b600073ffffffffffffffffffffffffffffffffffffffff168373ffffffffffffffffffffffffffffffffffffffff161415611579576040517f08c379a000000000000000000000000000000000000000000000000000000000815260040161157090612f2e565b60405180910390fd5b6000611583610f70565b9050600061159084611b59565b9050600061159d84611b59565b90506115bd83876000858560405180602001604052806000815250611c1f565b600080600087815260200190815260200160002060008873ffffffffffffffffffffffffffffffffffffffff1673ffffffffffffffffffffffffffffffffffffffff16815260200190815260200160002054905084811015611654576040517f08c379a000000000000000000000000000000000000000000000000000000000815260040161164b90612e2e565b60405180910390fd5b84810360008088815260200190815260200160002060008973ffffffffffffffffffffffffffffffffffffffff1673ffffffffffffffffffffffffffffffffffffffff16815260200190815260200160002081905550600073ffffffffffffffffffffffffffffffffffffffff168773ffffffffffffffffffffffffffffffffffffffff168573ffffffffffffffffffffffffffffffffffffffff167fc3d58168c5ae7397731d063d5bbf3d657854427343f4c083240f7aacaa2d0f628989604051611721929190613009565b60405180910390a461174784886000868660405180602001604052806000815250611c27565b50505050505050565b8173ffffffffffffffffffffffffffffffffffffffff168373ffffffffffffffffffffffffffffffffffffffff1614156117bf576040517f08c379a00000000000000000000000000000000000000000000000000000000081526004016117b690612f6e565b60405180910390fd5b80600160008573ffffffffffffffffffffffffffffffffffffffff1673ffffffffffffffffffffffffffffffffffffffff16815260200190815260200160002060008473ffffffffffffffffffffffffffffffffffffffff1673ffffffffffffffffffffffffffffffffffffffff16815260200190815260200160002060006101000a81548160ff0219169083151502179055508173ffffffffffffffffffffffffffffffffffffffff168373ffffffffffffffffffffffffffffffffffffffff167f17307eab39ab6107e8899845ad3d59bd9653f200f220920489ca2b5937696c31836040516118b09190612d6d565b60405180910390a3505050565b600073ffffffffffffffffffffffffffffffffffffffff168473ffffffffffffffffffffffffffffffffffffffff16141561192d576040517f08c379a000000000000000000000000000000000000000000000000000000000815260040161192490612ece565b60405180910390fd5b6000611937610f70565b9050600061194485611b59565b9050600061195185611b59565b9050611961838989858589611c1f565b600080600088815260200190815260200160002060008a73ffffffffffffffffffffffffffffffffffffffff1673ffffffffffffffffffffffffffffffffffffffff168152602001908152602001600020549050858110156119f8576040517f08c379a00000000000000000000000000000000000000000000000000000000081526004016119ef90612f4e565b60405180910390fd5b85810360008089815260200190815260200160002060008b73ffffffffffffffffffffffffffffffffffffffff1673ffffffffffffffffffffffffffffffffffffffff168152602001908152602001600020819055508560008089815260200190815260200160002060008a73ffffffffffffffffffffffffffffffffffffffff1673ffffffffffffffffffffffffffffffffffffffff1681526020019081526020016000206000828254611aad9190613151565b925050819055508773ffffffffffffffffffffffffffffffffffffffff168973ffffffffffffffffffffffffffffffffffffffff168573ffffffffffffffffffffffffffffffffffffffff167fc3d58168c5ae7397731d063d5bbf3d657854427343f4c083240f7aacaa2d0f628a8a604051611b2a929190613009565b60405180910390a4611b40848a8a86868a611c27565b611b4e848a8a8a8a8a611c2f565b505050505050505050565b60606000600167ffffffffffffffff811115611b9e577f4e487b7100000000000000000000000000000000000000000000000000000000600052604160045260246000fd5b604051908082528060200260200182016040528015611bcc5781602001602082028036833780820191505090505b5090508281600081518110611c0a577f4e487b7100000000000000000000000000000000000000000000000000000000600052603260045260246000fd5b60200260200101818152505080915050919050565b505050505050565b505050505050565b611c4e8473ffffffffffffffffffffffffffffffffffffffff16611ffd565b15611e0e578373ffffffffffffffffffffffffffffffffffffffff1663f23a6e6187878686866040518663ffffffff1660e01b8152600401611c94959493929190612cba565b602060405180830381600087803b158015611cae57600080fd5b505af1925050508015611cdf57506040513d601f19601f82011682018060405250810190611cdc91906126ff565b60015b611d8557611ceb613396565b806308c379a01415611d485750611d00613915565b80611d0b5750611d4a565b806040517f08c379a0000000000000000000000000000000000000000000000000000000008152600401611d3f9190612dac565b60405180910390fd5b505b6040517f08c379a0000000000000000000000000000000000000000000000000000000008152600401611d7c90612dce565b60405180910390fd5b63f23a6e6160e01b7bffffffffffffffffffffffffffffffffffffffffffffffffffffffff1916817bffffffffffffffffffffffffffffffffffffffffffffffffffffffff191614611e0c576040517f08c379a0000000000000000000000000000000000000000000000000000000008152600401611e0390612dee565b60405180910390fd5b505b505050505050565b611e358473ffffffffffffffffffffffffffffffffffffffff16611ffd565b15611ff5578373ffffffffffffffffffffffffffffffffffffffff1663bc197c8187878686866040518663ffffffff1660e01b8152600401611e7b959493929190612c52565b602060405180830381600087803b158015611e9557600080fd5b505af1925050508015611ec657506040513d601f19601f82011682018060405250810190611ec391906126ff565b60015b611f6c57611ed2613396565b806308c379a01415611f2f5750611ee7613915565b80611ef25750611f31565b806040517f08c379a0000000000000000000000000000000000000000000000000000000008152600401611f269190612dac565b60405180910390fd5b505b6040517f08c379a0000000000000000000000000000000000000000000000000000000008152600401611f6390612dce565b60405180910390fd5b63bc197c8160e01b7bffffffffffffffffffffffffffffffffffffffffffffffffffffffff1916817bffffffffffffffffffffffffffffffffffffffffffffffffffffffff191614611ff3576040517f08c379a0000000000000000000000000000000000000000000000000000000008152600401611fea90612dee565b60405180910390fd5b505b505050505050565b6000808273ffffffffffffffffffffffffffffffffffffffff163b119050919050565b600061203361202e84613057565b613032565b9050808382526020820190508285602086028201111561205257600080fd5b60005b8581101561208257816120688882612136565b845260208401935060208301925050600181019050612055565b5050509392505050565b600061209f61209a84613083565b613032565b905080838252602082019050828560208602820111156120be57600080fd5b60005b858110156120ee57816120d488826122e6565b8452602084019350602083019250506001810190506120c1565b5050509392505050565b600061210b612106846130af565b613032565b90508281526020810184848401111561212357600080fd5b61212e84828561321b565b509392505050565b600081359050612145816139ab565b92915050565b60008083601f84011261215d57600080fd5b8235905067ffffffffffffffff81111561217657600080fd5b60208301915083602082028301111561218e57600080fd5b9250929050565b600082601f8301126121a657600080fd5b81356121b6848260208601612020565b91505092915050565b60008083601f8401126121d157600080fd5b8235905067ffffffffffffffff8111156121ea57600080fd5b60208301915083602082028301111561220257600080fd5b9250929050565b600082601f83011261221a57600080fd5b813561222a84826020860161208c565b91505092915050565b600081359050612242816139c2565b92915050565b600081359050612257816139d9565b92915050565b60008151905061226c816139d9565b92915050565b60008083601f84011261228457600080fd5b8235905067ffffffffffffffff81111561229d57600080fd5b6020830191508360018202830111156122b557600080fd5b9250929050565b600082601f8301126122cd57600080fd5b81356122dd8482602086016120f8565b91505092915050565b6000813590506122f5816139f0565b92915050565b60006020828403121561230d57600080fd5b600061231b84828501612136565b91505092915050565b6000806040838503121561233757600080fd5b600061234585828601612136565b925050602061235685828601612136565b9150509250929050565b600080600080600060a0868803121561237857600080fd5b600061238688828901612136565b955050602061239788828901612136565b945050604086013567ffffffffffffffff8111156123b457600080fd5b6123c088828901612209565b935050606086013567ffffffffffffffff8111156123dd57600080fd5b6123e988828901612209565b925050608086013567ffffffffffffffff81111561240657600080fd5b612412888289016122bc565b9150509295509295909350565b600080600080600060a0868803121561243757600080fd5b600061244588828901612136565b955050602061245688828901612136565b9450506040612467888289016122e6565b9350506060612478888289016122e6565b925050608086013567ffffffffffffffff81111561249557600080fd5b6124a1888289016122bc565b9150509295509295909350565b600080604083850312156124c157600080fd5b60006124cf85828601612136565b92505060206124e085828601612233565b9150509250929050565b6000806000806060858703121561250057600080fd5b600061250e87828801612136565b945050602061251f87828801612233565b935050604085013567ffffffffffffffff81111561253c57600080fd5b61254887828801612272565b925092505092959194509250565b6000806040838503121561256957600080fd5b600061257785828601612136565b9250506020612588858286016122e6565b9150509250929050565b6000806000806000608086880312156125aa57600080fd5b60006125b888828901612136565b95505060206125c9888289016122e6565b94505060406125da888289016122e6565b935050606086013567ffffffffffffffff8111156125f757600080fd5b61260388828901612272565b92509250509295509295909350565b6000806040838503121561262557600080fd5b600083013567ffffffffffffffff81111561263f57600080fd5b61264b85828601612195565b925050602083013567ffffffffffffffff81111561266857600080fd5b61267485828601612209565b9150509250929050565b60008060006040848603121561269357600080fd5b60006126a186828701612233565b935050602084013567ffffffffffffffff8111156126be57600080fd5b6126ca86828701612272565b92509250509250925092565b6000602082840312156126e857600080fd5b60006126f684828501612248565b91505092915050565b60006020828403121561271157600080fd5b600061271f8482850161225d565b91505092915050565b60006020828403121561273a57600080fd5b6000612748848285016122e6565b91505092915050565b60008060008060008060006080888a03121561276c57600080fd5b600061277a8a828b016122e6565b975050602088013567ffffffffffffffff81111561279757600080fd5b6127a38a828b0161214b565b9650965050604088013567ffffffffffffffff8111156127c257600080fd5b6127ce8a828b016121bf565b9450945050606088013567ffffffffffffffff8111156127ed57600080fd5b6127f98a828b01612272565b925092505092959891949750929550565b60008060008060006060868803121561282257600080fd5b6000612830888289016122e6565b955050602086013567ffffffffffffffff81111561284d57600080fd5b6128598882890161214b565b9450945050604086013567ffffffffffffffff81111561287857600080fd5b61288488828901612272565b92509250509295509295909350565b600061289f8383612c19565b60208301905092915050565b6128b4816131a7565b82525050565b60006128c5826130f0565b6128cf818561311e565b93506128da836130e0565b8060005b8381101561290b5781516128f28882612893565b97506128fd83613111565b9250506001810190506128de565b5085935050505092915050565b612921816131b9565b82525050565b6000612933838561312f565b935061294083858461321b565b612949836133b8565b840190509392505050565b600061295f826130fb565b612969818561312f565b935061297981856020860161322a565b612982816133b8565b840191505092915050565b600061299882613106565b6129a28185613140565b93506129b281856020860161322a565b6129bb816133b8565b840191505092915050565b60006129d3603483613140565b91506129de826133d6565b604082019050919050565b60006129f6602883613140565b9150612a0182613425565b604082019050919050565b6000612a19602b83613140565b9150612a2482613474565b604082019050919050565b6000612a3c602483613140565b9150612a47826134c3565b604082019050919050565b6000612a5f603683613140565b9150612a6a82613512565b604082019050919050565b6000612a82602983613140565b9150612a8d82613561565b604082019050919050565b6000612aa5603f83613140565b9150612ab0826135b0565b604082019050919050565b6000612ac8603b83613140565b9150612ad3826135ff565b604082019050919050565b6000612aeb602583613140565b9150612af68261364e565b604082019050919050565b6000612b0e603283613140565b9150612b198261369d565b604082019050919050565b6000612b31603483613140565b9150612b3c826136ec565b604082019050919050565b6000612b54602383613140565b9150612b5f8261373b565b604082019050919050565b6000612b77602a83613140565b9150612b828261378a565b604082019050919050565b6000612b9a602983613140565b9150612ba5826137d9565b604082019050919050565b6000612bbd602983613140565b9150612bc882613828565b604082019050919050565b6000612be0602883613140565b9150612beb82613877565b604082019050919050565b6000612c03602183613140565b9150612c0e826138c6565b604082019050919050565b612c2281613211565b82525050565b612c3181613211565b82525050565b6000602082019050612c4c60008301846128ab565b92915050565b600060a082019050612c6760008301886128ab565b612c7460208301876128ab565b8181036040830152612c8681866128ba565b90508181036060830152612c9a81856128ba565b90508181036080830152612cae8184612954565b90509695505050505050565b600060a082019050612ccf60008301886128ab565b612cdc60208301876128ab565b612ce96040830186612c28565b612cf66060830185612c28565b8181036080830152612d088184612954565b90509695505050505050565b60006020820190508181036000830152612d2e81846128ba565b905092915050565b60006040820190508181036000830152612d5081856128ba565b90508181036020830152612d6481846128ba565b90509392505050565b6000602082019050612d826000830184612918565b92915050565b60006020820190508181036000830152612da3818486612927565b90509392505050565b60006020820190508181036000830152612dc6818461298d565b905092915050565b60006020820190508181036000830152612de7816129c6565b9050919050565b60006020820190508181036000830152612e07816129e9565b9050919050565b60006020820190508181036000830152612e2781612a0c565b9050919050565b60006020820190508181036000830152612e4781612a2f565b9050919050565b60006020820190508181036000830152612e6781612a52565b9050919050565b60006020820190508181036000830152612e8781612a75565b9050919050565b60006020820190508181036000830152612ea781612a98565b9050919050565b60006020820190508181036000830152612ec781612abb565b9050919050565b60006020820190508181036000830152612ee781612ade565b9050919050565b60006020820190508181036000830152612f0781612b01565b9050919050565b60006020820190508181036000830152612f2781612b24565b9050919050565b60006020820190508181036000830152612f4781612b47565b9050919050565b60006020820190508181036000830152612f6781612b6a565b9050919050565b60006020820190508181036000830152612f8781612b8d565b9050919050565b60006020820190508181036000830152612fa781612bb0565b9050919050565b60006020820190508181036000830152612fc781612bd3565b9050919050565b60006020820190508181036000830152612fe781612bf6565b9050919050565b60006020820190506130036000830184612c28565b92915050565b600060408201905061301e6000830185612c28565b61302b6020830184612c28565b9392505050565b600061303c61304d565b9050613048828261328f565b919050565b6000604051905090565b600067ffffffffffffffff82111561307257613071613367565b5b602082029050602081019050919050565b600067ffffffffffffffff82111561309e5761309d613367565b5b602082029050602081019050919050565b600067ffffffffffffffff8211156130ca576130c9613367565b5b6130d3826133b8565b9050602081019050919050565b6000819050602082019050919050565b600081519050919050565b600081519050919050565b600081519050919050565b6000602082019050919050565b600082825260208201905092915050565b600082825260208201905092915050565b600082825260208201905092915050565b600061315c82613211565b915061316783613211565b9250827fffffffffffffffffffffffffffffffffffffffffffffffffffffffffffffffff0382111561319c5761319b613309565b5b828201905092915050565b60006131b2826131f1565b9050919050565b60008115159050919050565b60007fffffffff0000000000000000000000000000000000000000000000000000000082169050919050565b600073ffffffffffffffffffffffffffffffffffffffff82169050919050565b6000819050919050565b82818337600083830152505050565b60005b8381101561324857808201518184015260208101905061322d565b83811115613257576000848401525b50505050565b6000600282049050600182168061327557607f821691505b6020821081141561328957613288613338565b5b50919050565b613298826133b8565b810181811067ffffffffffffffff821117156132b7576132b6613367565b5b80604052505050565b60006132cb82613211565b91507fffffffffffffffffffffffffffffffffffffffffffffffffffffffffffffffff8214156132fe576132fd613309565b5b600182019050919050565b7f4e487b7100000000000000000000000000000000000000000000000000000000600052601160045260246000fd5b7f4e487b7100000000000000000000000000000000000000000000000000000000600052602260045260246000fd5b7f4e487b7100000000000000000000000000000000000000000000000000000000600052604160045260246000fd5b600060033d11156133b55760046000803e6133b26000516133c9565b90505b90565b6000601f19601f8301169050919050565b60008160e01c9050919050565b7f455243313135353a207472616e7366657220746f206e6f6e204552433131353560008201527f526563656976657220696d706c656d656e746572000000000000000000000000602082015250565b7f455243313135353a204552433131353552656365697665722072656a6563746560008201527f6420746f6b656e73000000000000000000000000000000000000000000000000602082015250565b7f455243313135353a2062616c616e636520717565727920666f7220746865207a60008201527f65726f2061646472657373000000000000000000000000000000000000000000602082015250565b7f455243313135353a206275726e20616d6f756e7420657863656564732062616c60008201527f616e636500000000000000000000000000000000000000000000000000000000602082015250565b7f455243313135354d6978656446756e6769626c653a2063616c6c65722069732060008201527f6e6f74206f776e6572206e6f7220617070726f76656400000000000000000000602082015250565b7f455243313135353a2063616c6c6572206973206e6f74206f776e6572206e6f7260008201527f20617070726f7665640000000000000000000000000000000000000000000000602082015250565b7f455243313135354d6978656446756e6769626c653a20696420646f6573206e6f60008201527f7420726570726573656e742061206e6f6e2d66756e6769626c65207479706500602082015250565b7f455243313135354d6978656446756e6769626c653a20696420646f6573206e6f60008201527f7420726570726573656e7420612066756e6769626c6520747970650000000000602082015250565b7f455243313135353a207472616e7366657220746f20746865207a65726f20616460008201527f6472657373000000000000000000000000000000000000000000000000000000602082015250565b7f455243313135353a207472616e736665722063616c6c6572206973206e6f742060008201527f6f776e6572206e6f7220617070726f7665640000000000000000000000000000602082015250565b7f455243313135354d6978656446756e6769626c653a20746f20616e6420616d6f60008201527f756e7473206c656e677468206d69736d61746368000000000000000000000000602082015250565b7f455243313135353a206275726e2066726f6d20746865207a65726f206164647260008201527f6573730000000000000000000000000000000000000000000000000000000000602082015250565b7f455243313135353a20696e73756666696369656e742062616c616e636520666f60008201527f72207472616e7366657200000000000000000000000000000000000000000000602082015250565b7f455243313135353a2073657474696e6720617070726f76616c2073746174757360008201527f20666f722073656c660000000000000000000000000000000000000000000000602082015250565b7f455243313135353a206163636f756e747320616e6420696473206c656e67746860008201527f206d69736d617463680000000000000000000000000000000000000000000000602082015250565b7f455243313135353a2069647320616e6420616d6f756e7473206c656e6774682060008201527f6d69736d61746368000000000000000000000000000000000000000000000000602082015250565b7f455243313135353a206d696e7420746f20746865207a65726f2061646472657360008201527f7300000000000000000000000000000000000000000000000000000000000000602082015250565b600060443d1015613925576139a8565b61392d61304d565b60043d036004823e80513d602482011167ffffffffffffffff821117156139555750506139a8565b808201805167ffffffffffffffff81111561397357505050506139a8565b80602083010160043d0385018111156139905750505050506139a8565b61399f8260200185018661328f565b82955050505050505b90565b6139b4816131a7565b81146139bf57600080fd5b50565b6139cb816131b9565b81146139d657600080fd5b50565b6139e2816131c5565b81146139ed57600080fd5b50565b6139f981613211565b8114613a0457600080fd5b5056fea2646970667358221220dfe23c83a49fb233ad1a5f13f6556d5e014873fffa175de3f2a7646a79e1d0ba64736f6c63430008040033",
  "linkReferences": {},
  "deployedLinkReferences": {}
}